:020000040800F2
:1000000080EA0020EDD2000875C9000877C9000811
:1000100079C900087BC900087DC9000800000000FC
:100020000000000000000000000000007FC9000880
:1000300081C900080000000083C9000885C90008C4
:100040001DD3000821D3000825D3000829D30008B8
:100050002DD3000831D3000835D3000839D3000868
:100060003DD3000841D3000845D3000849D3000818
:100070004DD3000851D3000855D3000859D30008C8
:100080005DD30008E3CA000865D3000869D30008FF
:100090006DD3000871D3000875D3000879D3000828
:1000A0007DD3000881D3000885D3000889D30008D8
:1000B00089C9000891D3000895D3000899D3000896
:1000C0009DD30008A1D30008A5D30008A9D3000838
:1000D000ADD30008B1D3000803CA0008B9D30008A3
:1000E000BDD30008C1D30008C5D30008000000003C
:1000F0000000000000000000000000000000000000
:100100000000000000000000C9D30008CDD30008A3
:10011000A3C9000891CA0008D9D30008DDD300089C
:10012000E1D30008E5D30008E9D30008EDD30008C7
:1001300005CB00087FCB0008F9D30008FDD30008E9
:1001400001D4000805D4000809D400080DD4000823
:10800000F0B583B005460E46DFF8AC4A68682062DA
:10801000008800F062FDC0F30320696801EB800076
:10802000E061206A008800F058FD000A00F00F00AF
:1080300000F048F910B92889142803D2284600F026
:108040003EFEF7BD3146206A103000F019FF0028CF
:10805000F4D14FF0704000F04DFD06464FF0604007
:1080600000F048FD216A096931408142E6D0E069AB
:1080700000F0E3FC000B00F025F90028DED1E069F8
:10808000008800F02AFDE1690880488800F025FD9D
:10809000E1694880486800F02DFDE1694860606250
:1080A000886800F027FDE1698860A062C88900F057
:1080B00014FDE169C881888900F00FFD00F03F00E0
:1080C000207010F0030018BF012029894018208378
:1080D0000021DFF8E8793E68E36901E03146F6689F
:1080E000226AB6B3B6F820C0B3F800E0F445F5D183
:1080F000B6F818C0B3F802E0F445EFD1D6F804C0E2
:10810000D2F80CE0F445E9D1D6F800C012699445E4
:10811000E4D121B1F068C8603868F0603E600020AA
:108120006060288920826868E060A5606361002043
:10813000E0626070F26F002A5AD0D6F884C06046C0
:10814000002850D0002331467069E04700282BD129
:108150004CE0DFF86C190E6800E0F6682EB3318C45
:108160001F88B942F9D1318B5F88B942F5D1716866
:10817000D768B942F1D131681769B942EDD1616A66
:1081800080B24118726A8A1A012AA8BF716240B18E
:1081900096F8220040F0020086F82200304601F0F6
:1081A00057F8304601F054F848E70021DFF8146929
:1081B000306801E00146C068002879D005D0076822
:1081C0001FB1D2F810C06745F4D1078BB3F802C0D5
:1081D0006745EFD121B1C268CA603168C1603060C3
:1081E00000F076F82AE7104600F069FD0020F067FD
:1081F0002663304600F0E0F80546002020636FF06B
:108200000400854248D06078010710D5D6F8902048
:10821000100003D06FF00501706990473146384671
:1082200001F0D3FC3146022001F05EFD34E0C006CF
:10823000F4D40025B6F86C203AB1D6F88030180096
:1082400003D03146706998470546E06A98B12178B5
:10825000090703D5417B41F001014173D6F88450F1
:10826000290021D00023024631467069A847050045
:108270001CBFE06AF0676078800609D5D6F88450A4
:10828000280006D00023002231467069A847054621
:1082900015B9304600F0DCFFA068002803D000F0DC
:1082A0000EFD0020A060F7BD002500F008FDE2E70C
:1082B000988900F012FC400703D400F06DF801F03B
:1082C00017F9BBE68000414209B2284600F0C7BC5E
:1082D0007CB50546DFF8E0472078C10606D500F0FA
:1082E0005BF8401C01F004F9002076BD8007FBD547
:1082F000687C01F0DDFB060002D14FF0FF3076BD57
:10830000206A10F110010CBF002101693160298B36
:10831000318310F10C010CBF0020C0687060E0696F
:108320000188318403213174616A4A1C7262F262ED
:10833000C089A6F85C00A6F85400481E306668693B
:108340007061E869F061288940F299110840308134
:10835000DFF868070168F1600660304600F073FBE3
:10836000311D308F01F074FC308701200190002016
:108370000090122300220146304600F0E1FD040087
:1083800005D00021304601F0EAF9204676BD30469E
:10839000BDE8764000F05CBF206AE1690A8801927E
:1083A0004988009100F10C0300F11002606A218BF2
:1083B0000918A06A70470000F0B583B00446DFF8E2
:1083C000F856287841071DD5207C022810D1A86ACC
:1083D000A16D884214D1687840F00800687094F864
:1083E000220000F0FE0084F822006FF00500FEBDC0
:1083F000686A616A401A03D4218D401A0128EADBB9
:108400000020FEBD800707D5207C022804D0032869
:1084100002D000F027F9F3E7DFF8AC06006820632C
:10842000002084F89D00204600F00DFB2878DFF83E
:108430009C66DFF88876217C891E0729E0D8DFE872
:1084400011F009006700A000A600E000A000F700FE
:108450000101D5E700F01200122845D1A06F00F00D
:10846000E7FAA96A401C81423ED1B4F86E00401C74
:10847000A4F86E00686A421C6262E262E164E96923
:10848000C989A4F85C10401E206604202074211DB8
:10849000208F01F0DDFB20870A214843A4F8540017
:1084A000208FB4F85210012908BF4000A4F85200F0
:1084B000B4F87000401EA4F87000A06F0168A167B6
:1084C00019B94FF0FF31E18603E00021E18684F81D
:1084D0004A1001F0D1FAD4F88830180099D000225F
:1084E00021466069984794E72878C00688D5286AAD
:1084F000E9690A8801924988009100F10C0300F1B2
:108500001002686A298B0918A86A00F0F1FF77E762
:10851000C1062BD5A86AE16C411A491EE7D4A16DAA
:10852000401A0128E3DA04202074E36918000BD014
:10853000002221466069984730B10121204601F0B0
:108540000EF96FF00400FEBDB4F8526000F088F838
:10855000208F012E08BF4000A4F8520068788006E2
:1085600003D500F07FF80720207449E78007FCD589
:10857000686A616A491E884202D1204601F022F8E9
:108580003EE700F06DF868788006EAD438E700F03E
:1085900067F8A86A297801F010016A78920629D54F
:1085A00021B3A16D884221D100F05CF8204601F092
:1085B000F4FA3868A04203D13868C06838600BE02C
:1085C00030603068002807D0C0680028F8D0A0428A
:1085D000F6D13068E168C1600020E0600A202074B4
:1085E000DFF8DC040168E160046009E700F03AF8B4
:1085F0000820B9E70029F8D0A16D8842F5D10620FE
:10860000B2E700F02DF868788006EED500F02AF881
:10861000204601F0C2FA3868A042CDD03060306800
:108620000028D9D0C0680028F8D0A042F6D1D0E701
:1086300000F016F82878C00611D5A86AA16D884206
:108640000DD1E5E700F00CF82878C00607D5A86A38
:10865000A16D884203D1687840F010006870CFE6C1
:10866000204608E094F8220040F0020084F822003E
:10867000204600F0EDBD2DE9F04780464FF000099F
:1086800008F11006DFF830743878C00640F10F8129
:1086900008F23404D4F830E0B4F828C00EEB0C0132
:1086A000E56AFB69B86A7A6AAD1A09D402D1BEEBF1
:1086B000000505D486450DD1B3F80EE0F44509D286
:1086C000DB892385E262206323B198F89C200AB1FC
:1086D00088F89C90A269824233D1A4F83890206B2C
:1086E000228D1018884223D1207F401C2077C0B2F1
:1086F00003281DD3606C00281AD0B07C400718D422
:10870000404600F05FFFE08B218D814234BF480876
:108710004008A188B0EB410FB8BF48002084208CEE
:1087200001EB41010818E083B07C40F00400B07414
:108730007BE0E08BA188091889B2884275D2E18379
:1087400073E0811A491E65D4616A411A012961DA10
:10875000B17C490705D5B17C01F0FB01B174218CD6
:10876000E18384F81690B4F91010B4F9122002EBEA
:10877000E101A182A169411A2187628F891861876D
:1087800084F81C90A06198F8100004281CD3A088DD
:10879000E18B228C914205D2401880B2814213D2E3
:1087A000E08311E0404390FBF1F0401880B2814239
:1087B00038BF0146E18307E02868606400F040F9B3
:1087C00000F03EF900F028F9606CD8B100F030F903
:1087D0008246606C006900F030F9C00708D4606C14
:1087E000006900F02AF90006400E00F0010000E0E8
:1087F0000120656CA98940185044B96A401A0128C3
:10880000DADB15B94FF0FF3000E00020608088F817
:1088100034900AE0A4F8389007E02868206400F05B
:108820000FF900F00DF900F0F7F8206CF0B100F04E
:10883000FFF88246206C006900F0FFF8C00708D4FA
:10884000206C006900F0F9F80006400E00F001000D
:1088500000E00120256CB96AA1EB0A02AB89D21AAB
:10886000101A03D4606A081A0128D6DBA068F0B198
:10887000E168BA6A891A1AD5B4F91010924A1268D6
:10888000101A00B2A0EBE1004118218202B2002AC6
:1088900048BF4042B4F912208018A0EBA2006082C9
:1088A00009B200B200EBE100A082C4F80890706940
:1088B0007A6A3B8B002B00F0A580811A4C1E27D4CE
:1088C000CB1A5B1C012B23DAB868044642898A4222
:1088D0000EDA0089401A04E0891A2081A4F80A906F
:1088E000246862898A42F7DB494209B2204601E0E6
:1088F000494209B200F0B3F96068F8607069398ADA
:10890000091A7A6A5118398278627969486004E0F4
:10891000101A02D5B07C00F085F87069796A0A1ADD
:108920006ED4338BD21A521C012A69DA884267D17D
:108930004FF0010900F080F8C00706D400F07CF881
:108940000006400E00F0010000E00120398A4018C6
:108950003883318B80B281422ED200F06DF8C0078F
:108960000ED500F069F8044600F066F84FF6C071C5
:10897000214000F03E00084300F0AAF879698881A0
:10898000308B388200F058F8800702D5388A401EB4
:108990003882398AB86800F03BF900F04DF8C0071A
:1089A00006D400F049F80006400E00F0010000E097
:1089B0000120398A40183883388B796A41187161EF
:1089C000318B081A3083404600F012FFB8680189E5
:1089D00011B1F8620020B86000F02EF8C00703D58E
:1089E000787840F020007870B07CC10704D500F0A2
:1089F000FE0000F017F80CE040F00100B07408E051
:108A0000B07CF6E7101AFBD4318B401A401C0128C9
:108A1000F6DA4846BDE8F087A18F081AA0872846F5
:108A200001F02AB840F00200B074404600F010BCDB
:108A30000069406800F05EB87869808900F04DB840
:108A4000686800F05CB970B504461B4EF06900F22E
:108A50001405FFF7F2FF000B06282CD3F069FFF78F
:108A6000ECFF000B401F8004000C002101E0491CBA
:108A700089B281421FDA4A194B5DE3B1022B01D062
:108A8000F5D313E05378042B15D10B1D984212DB5C
:108A90009378D27842EA032240F2B5539A4200D248
:108AA0000AB940F2B4522287091DE1E75378002B3E
:108AB00018BF5918DCD170BDC8D9002010000020A3
:108AC000140000200C0000200400002018000020EA
:108AD000010A41EA002080B27047F9E700F47F41C3
:108AE000090241EA0061020A02F47F42114341EAAD
:108AF00010607047F2E7F8B50D461746002628B11A
:108B0000022806D003D3032805D00BE01426143620
:108B1000B6B20E36B6B2002F4ED0022F67D066D353
:108B2000032F01D00020F2BD082001F0CFF804008F
:108B3000F8D0032020730020206030191030C01CB2
:108B40008008800060602581284640F2DC51F21CDC
:108B500022F00302891A884206DB40F2DC51F21C43
:108B60004FF6FC731A408D1A65810121E18126467A
:108B70006189451A15E003210173002141730160E9
:108B80003060058140F2DC52A9B2914288BF1146A3
:108B9000418100F1100141600121C18141896D1ABB
:108BA0000646012D2EDB082001F090F80028E2D1C6
:108BB000204600F084F8B5E706F113004FF6FC718B
:108BC0000840E91C4FF6FC721140081880B201F011
:108BD00045F90400A6D030191030C01C8008800070
:108BE0006060258165810020206020730AE00720F5
:108BF00001F06CF8040095D000206060258165814B
:108C0000206027730120E081002060732046F2BDC0
:108C100038B504460D46208985421FD2281A05E042
:108C20006D1AADB221894118218124686189A94258
:108C3000F6DB207B48B98D4207D06068001B2918FD
:108C400089B2204601F0B9F8044665816089208127
:108C5000206808B100F033F80020206031BD30B545
:108C600000292AD0002828D04A42002905D5448965
:108C700093B29C4202D2012030BD0B46047B456872
:108C80000CB1032C07D15219426000F110039A4233
:108C90000DD24560EFE7022C01D0012CEBD1002969
:108CA000E9D544899BB29C42E5D35219426042897E
:108CB0008A184281028989180181002030BD00B9DB
:108CC000704738B50024C189491EC18189B2A1B954
:108CD0000568017B032904D10146082001F004F84E
:108CE00008E0012901D0022902D101460720F5E759
:108CF00001F02FF8641C2800E5D1E0B232BD00215C
:108D000001E0491C00680028FBD1C8B2704710B1CF
:108D1000C189491CC181704700B9704710B561B164
:108D200003E004891219028118460A890368002B9E
:108D3000F7D10389D2180281016010BD10B50C462D
:108D4000FFF7EAFF2046BDE81040E0E72DE9F041DB
:108D500004460D460026002724B11DB1208929892B
:108D6000884202D26FF0090033E0688961898A1B6A
:108D7000C31B9A42ACBFC01B881B1FFA80F8424637
:108D8000686839186068301801F0B8F84644B6B21F
:108D90004744BFB26089864204BF002624686889C0
:108DA0008742A4BF00272D6845B168892989884278
:108DB00004D1286810B16FF008000AE034B160896E
:108DC0002189884202D120680028F4D1002DCCD11D
:108DD0000020BDE8F0812DE9F043044688461546A1
:108DE00000262CB3B8F1000F22D0B14613E0C01A10
:108DF00087B2BD42B8BF2F463A466068191809EBE2
:108E0000080001F07BF8BE19B6B2B9441FFA89F91F
:108E1000ED1B00232468ADB2002D18BF002C07D035
:108E200060899BB2002BE2D08342E0D31B1AF1E7AA
:108E30003046BDE8F0832DE9F04104460D46164664
:108E4000002714B90020BDE8F081002DFAD0208958
:108E5000904238BF6FF00900F5D3B6B2002EF1D0C2
:108E6000B04660894045B8BF80464246791960687F
:108E700001F044F8A6EB08064744BFB22468ECE7CB
:108E800000680246D34301D0002A01D10120704777
:108E900091F82A309B0701D4002070474B689A4212
:108EA000FAD0091D496808400B409842F4D1C843E4
:108EB00000EA02018142EFD1E8E700000000000073
:108EC000F8B5044615461F464E68208BFFF700FE96
:108ED0003080208CFFF7FCFD70807760606AFFF7C0
:108EE000FDFDB060B089FFF7F8FD4FF6C071084096
:108EF00040F01000FFF7ECFDB081608DFFF7E8FD5A
:108F0000F08100207082B089FFF7E7FD691005EB62
:108F1000917100F094F9B08100203082606A618D17
:108F20000818E0623046F2BD00B583B0002201921D
:108F3000012200920B460022002100F001F80EBD34
:108F40002DE9FF4F83B05AB99DF8440028B9032199
:108F50000B4202D16FF0090089E004980028F9D192
:108F6000039800F11804B0F86E00904204D2A07A81
:108F700040F08000A07278E09046049801909DF83F
:108F80004400C0074CBF042000209DF8441089070E
:108F90004CBF0C2100210818C0B20090D4F85090AA
:108FA000039800F26E000290B0F802B0BBF10C0F13
:108FB000DDD200260027208C0099411A4145BDBF13
:108FC0000099401A1FFA80FAC246042000F07EFE83
:108FD0000546002D41D0002028606860002E0CBF9F
:108FE0002E463D602F469DF84000C0071AD500224E
:108FF000009800EB0A0189B20020FFF77CFD686051
:1090000058B3FFF77CFE8344049838B15246019967
:1090100000986B685B68C01800F070FF6868406873
:10902000A86030E000220099C9B20020FFF763FD7C
:10903000686090B1FFF763FE8344B8F1010F22DB53
:1090400001221FFA8AF10320FFF755FD010011D11B
:109050006868FFF734FE00206860A07A40F0800066
:10906000A07216B1304600F0FAFC4FF0FF3007B0A6
:10907000BDE8F08F0BF1010B019848600198A860E2
:109080006868FFF749FE1FFA8BFBBBF10D0FE4D2B6
:10909000A5F80CA014216868FFF7E1FD0028DCD1D9
:1090A0006868406828610398008BFFF711FD296903
:1090B00008802089FFF70CFD296948804846FFF7A2
:1090C0000DFD29694860002048828889FFF705FD69
:1090D0004FF6C07108409DF818100843FFF7F8FCE0
:1090E000296988819DF84400A8738889FFF7F5FCF9
:1090F00000994A1001EB927100F0A1F8296988816A
:10910000A8EB0A001FFA80F8D1440198504401905E
:10911000002E3FF450AFB8F1010FBFF64CAF0398EB
:10912000476F002F50D000E0074638680028FBD179
:10913000002F49D000F079F9C00706D400F075F986
:109140000006400E00F0010000E00120B98940183F
:109150003DD000F06AF90321084238D19DF818008B
:10916000084234D1208CB989B289511888422EDB4B
:10917000B87BB17B88422AD100981430414209B2B1
:109180007068FFF76CFD002889D17068418939B992
:109190000168716000210160ABF1010BFFF78FFDE9
:1091A00071687868FFF7B8FDB889B1890818B88187
:1091B00031683960B54204BF3D461FFA80FA314636
:1091C000042000F091FD0DE00398466700E03E604A
:1091D0009DF818000321084204D0BDF81400401C7B
:1091E000ADF814009DF81800C00703D5A07A40F030
:1091F0002000A072206DBDF8141008182065039897
:10920000B0F86E00BDF81410401A0399A1F86E0072
:109210000298A0F802B085B1BAF1000F0DD028690C
:1092200058B19DF84010890707D400F0FFF840F0CE
:109230000800FFF74DFC29698881002017E7891095
:10924000491D00F03F0040EA013080B2FFF740BC0A
:109250002DE9F04F83B00446A0480068A04245D0F5
:1092600004F24C05E888B5F81090814528BF814686
:10927000AF6AD5F82C80B8F1000F05D000E0804629
:10928000D8F800000028FAD104F20A06307E8007E0
:1092900040F1A98047B100F027F9E16C401AB98983
:1092A0000818814580F0A08000F06EF9070008BF23
:1092B0006FF0010000F0B780307E00F0FC003076E7
:1092C000E868FFF70BFC0346002239462046FFF70B
:1092D000F7FD06200190A07A00907378221D2146A8
:1092E000384600F073FF3846FFF7E9FC9AE000F0DB
:1092F0009CF8E86A68B1307E41060AD4A96A29B1AF
:109300000A6832B98989F28D914202D2A0210842BD
:1093100073D03868A862B07902280BD000F085F8C5
:1093200040F01000FFF7D4FB39698881307E00F0EF
:10933000FC0030762146384600F07BF800F0D4F887
:10934000824600F072F8C00706D400F06EF80006FE
:10935000400E00F0010000E00120B989401850449F
:10936000E968091A48BFE86000F05FF8C00706D452
:1093700000F05BF80006400E00F0010000E0012064
:10938000B989401801282ADB00203860E86A10B942
:10939000EF62B84626E000F0A7F88246D8F8100041
:1093A00000F0A3F8BAEB000016D504F2780A01E049
:1093B000DAF800A0DAF8000040B1006900F095F892
:1093C000834600F091F8BBEB0000F1D4DAF800001E
:1093D0003860CAF8007005E0C8F80070D9E7384670
:1093E00000F04AFBAF6ACFB100F07EF8E16C401AA2
:1093F000B98908188145BFF47AAF94F89C0068B920
:1094000000F072F8298AE26C801ABA891018814239
:1094100004D20020E864012084F89C00307E00F033
:109420007F0030760020BDE8FE8F38698089FFF725
:1094300054BB7CB504460D46686AFFF74FFB2169B3
:109440008860688DFFF744FB2169C881686A698D6F
:109450000818E862206900F21406A07BC00703D553
:109460001F48FFF73BFB30600DB1286840B9281D4D
:1094700000F07CFD88B3011D0CBF0020406828600F
:10948000B5F936004FF0FF31884204BF0020E8866E
:10949000E86B30B913480068E863206900F025F8EC
:1094A0002864606821694268891A89B24289521A1F
:1094B000428160680289511A0181606821694160B6
:1094C00020690021018206200190A87A0090EB7AA1
:1094D0002A1D2946606800F079FE73BDF8D9002086
:1094E000B40504020400002038694068FFF702BB9D
:1094F0002DE9F04F83B082468B46904699460C9DED
:109500000D9C00F041F80646002E3BD07768A8B2CB
:10951000FFF7DEFA3880A0B2FFF7DAFA788050461B
:10952000FFF7DCFA78605846FFF7D8FAB860B889D8
:10953000FFF7D3FA4FF6C071084040F01400FFF770
:10954000C7FAB88140F66830FFF7C2FAF881002008
:109550007882B889FFF7C1FA00F03F0040F4A040DC
:10956000FFF7B6FAB881002038820620019000206B
:109570000090FF234A464146304600F027FE304621
:10958000FFF79DFBBDE8F78F002214210120FFF7B4
:10959000B2BA00F23C01CA6B02B9704780B500E074
:1095A0001A461368002BFBD18B6B1360CA6B8A635E
:1095B0000022CA638A7B521C8A730021C163FFF7B1
:1095C00047FE01BD2DE9F041044604F23C05EE6B77
:1095D000E6B13068E86304F2740700E03F68386879
:1095E00048B10069FFF781FF80463069FFF77DFFD2
:1095F000B8EB0000F2D4386830603E60A87B401CB5
:10960000A8730020E0632046FFF722FEBDE8F0814A
:1096100030B583B00446FFF7B7FF05000BD0A06D4F
:10962000401EFFF75BFA034600F021F800F023F834
:109630002846FFF744FB37BD7CB50446A66F06B944
:10964000666F9EB1002215210120FFF754FA050034
:109650000CD03069436800F00AF86868B16809788E
:10966000017500F008F82846FFF729FB73BD0022BA
:109670002946204624E40620019000200090E37A49
:10968000221D2146284600F0A1BD10B450F8041B4D
:1096900081B102681218001D50F8043BDC0744BF7A
:1096A000A9F10104E31852F8044B43F8044B091FD5
:1096B000F9D1EBE710BC704780B500F0ACF9DFF8EA
:1096C00078050178491C0170C80748BF00F0A4F86C
:1096D00001BD000038B50446DFF86005217C07298C
:1096E0003BD8DFE801F004131B23233A3A3200256C
:1096F0008168A14204BFC968816001D000F08AFA84
:10970000E5602146022000F0EFFA1CE0002521462A
:109710000C3000F05AFA21460320F4E700252146D8
:10972000103000F052FA21460220ECE701212046D9
:10973000FFF7FAFB050001D1052020741CB115B913
:109740002046FFF785FD284632BD01212046FFF760
:10975000EBFB0500F2D10920EFE70025F3E72DE947
:10976000F04F85B004460D46DFF8D004217C0A296D
:1097700006D12146143000F028FA00F035F830E028
:10978000D4F85880D4F82490002C0CBF0021216814
:109790000291211D0CBF002161680391268B278C4B
:1097A000D4F890A0D4F814B02146103000F00DFA8F
:1097B000A06F08B100F053F9606F08B100F04FF9E5
:1097C00000F012F8504618B16FF004015846D04727
:1097D0003DB10197009603AB02AA49464046FFF708
:1097E00087FE05B0BDE8F08F2146022000F07CBA6C
:1097F00030B5028D436AD118C46A091B058F4D1B11
:1098000002D44285084630BD191B0129ACBF002196
:10981000E11A4185002030BD2DE9F84FDFF81C44E6
:109820006068401C6060002526694FF0320B40F2F2
:1098300091180FF23C4940F6611A0AE0D6F89020E0
:10984000100003D06FF004017069904700F0DEF85B
:109850003E46002E00F0C080002796F84A10327C69
:10986000022A03D1062901D101274DE00C29FBD0A2
:1098700096F89C00B0B1D6F89810491CC6F898101C
:109880000FF2FC32821812F8012C91423CD3C6F838
:10989000987007283CBF401C86F89C003046FFF7B4
:1098A000CBFE31E0B6F9360000285CBF401CF086E4
:1098B000B06F48B3B6F93600B6F94830984223DBAA
:1098C000022A0AD0B6F94400B6F9462002EBE000BD
:1098D00011F909108840A6F848000020F786B6F86C
:1098E0005200B6F85C10884288BF0846C003318F2A
:1098F000000C884238BF4800A6F85400308FA6F804
:1099000052003046FFF745FE307C062805D16168DD
:10991000326B891A414528BF7F1C317A090724D54B
:10992000042801D0072820D16068316B401AD6F88E
:109930009410C34A5218B2FBFBF2824204D20121B6
:109940003046FFF70CFF10E096F89D20BD4B03FB5F
:109950000211B1FBFBF1814207D23046FFF758FEFE
:1099600096F89D00401C86F89D00317C781C0329E8
:1099700004D16168326B891A414505E0092905D196
:109980006168326B891A514528BF0746F8B240B169
:10999000304600F002F9F068002D14BFE860206145
:1099A0004CE796F83400401C86F8340096F83510E1
:1099B000C0B288420DD3002086F83400D6F88C203F
:1099C000100003D031467069904710B93046FFF758
:1099D0003FFC3546F6683CE70025666902E000F08A
:1099E00015F83E4686B16068316B401A504508D381
:1099F000304600F0D2F8F068002D14BFE8606061D6
:109A0000EDE73546F668EDE7BDE8F18FF7683146DA
:109A1000022000F069B970B5884804690DE0FFF7CD
:109A20004EF900202867A87DC10705D500F0ECF8A5
:109A3000A87D00F0FC00A875E4687CB104F20C0578
:109A4000286F0028EFD0AE6F3100E8D00023024627
:109A50002146A868B0470028E5D1E2E770BD38B5D7
:109A60000024002805E0056800F006F80419E4B2B7
:109A70002800F8D1204632BD38B50446002544B14F
:109A8000606810B1FFF71BF905462146042000F07D
:109A90002BF9284632BD80B522B11046FFF70FF9E9
:109AA000002002BD002BFBD10846BDE8024011E6B4
:109AB000F8B50546022000F009F906005F4C35D1E3
:109AC00000210020626907E06368166B9B1B8B42D4
:109AD00024BF19461046D268002AF5D110B10121E1
:109AE000FFF73DFE022000F0F1F806001ED17F21B5
:109AF0000022002023690FE05E7CB5420BD3B14207
:109B000009D36768D3F830C0A7EB0C07974202D39C
:109B10003A4618463146DB68002BEDD110B10121E1
:109B2000FFF71DFE022000F0D1F806469EB3A021EB
:109B3000304600F065FB06F20A004021C17106F2D2
:109B4000300540F66831E9870022A6F87020C1830D
:109B50000184B272FF2141704FF4067028813C20CD
:109B60002883AA82E8824FF0FF30E88001206884D1
:109B700000F05BF86863A862E861A863606830631E
:109B80000020287106F270002F4941612F4941627F
:109B9000002086F89D003046F2BD10B50446207CBA
:109BA00090B10A2810D001280ED0E06F18B1FFF74D
:109BB00086F80020E067606FFFF751FFA06FFFF7A6
:109BC0004EFF00206067A06710BD38B50C460168E5
:109BD000A14204BFC968016002D0184800F01AF819
:109BE0000020E0602046FFF7D8FF04F20C0528793A
:109BF0000A2806D0012804D0A87DC10701D500F0AD
:109C000003F80020287131BD40F00200A8752046FD
:109C1000FFF71EBB8161826932B1D1680029F9D09A
:109C2000A142F7D1E068D06070470449C8694A682A
:109C30001018C861704700007FDA00200000002083
:109C4000B84C0A00F8240100979A000800DD6D0066
:109C500010B50446084600F089F930B1008D20B1F6
:109C6000283880B2844288BF0446204610BD0000D8
:109C7000010203040506070707070707070000009E
:109C800003060C183060780070B51B4800F1240101
:109C9000C91C8908890000220FF260030FF27004CA
:109CA000002540F8225008E050F822600E6040F88D
:109CB000221033F8126071186D1C34F81260ADB2C6
:109CC000B542F1D3521C092AEADB70BD092801D341
:109CD00000207047084A52F8201000291CBF0B686A
:109CE00042F820300846704729B1034A52F8203024
:109CF0000B6042F820107047785000201C002000B4
:109D0000A00020001400200008001000EC05000056
:109D1000040006000A0006000C0005001E000A00F0
:109D20000A00000010B5744800F10C01C91C890834
:109D3000890001604FF4A0420A8000234B800B7120
:109D400053184360436801241C711A805A80816053
:109D500010BD00B9704730B567490A6890422BD3EF
:109D60004C68A04228D20838002303718B689842BF
:109D700038BF886003889B1898420DD01D795DB963
:109D8000A34209D08C689C4208BF88601C8804806C
:109D90001B889B18841A5C8043889B1883420BD0D5
:109DA0001C794CB98C68844208BF8B60018819808B
:109DB00000888018991A418030BD2DE9F041C91CF6
:109DC0004FF6FC7202EA01030C2B08D20C234A491D
:109DD0000A68904208D34D68A84207D304E045F2D0
:109DE00001018B42F3D30020BDE8F081A0F108040B
:109DF000A51A2688771B083F1FFA87FE9E45F2DBCF
:109E00007345F1D0B718D1F808C05E19083697F835
:109E10000480B8F1000F14D13B88B6B206EB020EF5
:109E2000BC4508BFC1F808E07746002139713B8086
:109E30007D8026803988B1F5A04FD5D089184E8015
:109E4000D2E714339E45CFD3B6B2B718674538BFB3
:109E50008F600021397121883980E9E7F0B5002849
:109E600001D10020F0BDC01C4FF6FC7108400C2849
:109E700038BF0C2003D345F201018842F1D21E49BC
:109E80008A680B68D41AA4B2064600E0E45AC0F50A
:109E9000A045AC42E5DAE5182F79002FF6D12F88DE
:109EA0003F1B083FB742F1D31436B74212D3001913
:109EB000083080B2C618002737712F883780748029
:109EC000288001242C713488B4F5A04F04D0E41804
:109ED000608001E001202871954208D101E01088DE
:109EE000C218107900281CBF48688242F7D18A60E6
:109EF00005F10800F0BD0000580000204AB38B07B0
:109F000007D0521E11F8013B00F8013B21D08B070E
:109F1000F7D183071ED1103A07D330B4B1E8381017
:109F2000103AA0E83810F9D230BC530724BFB1E88A
:109F30000810A0E8081044BF51F8043B40F8043B67
:109F4000D20724BF31F8022B20F8022B44BF0B7834
:109F500003707047083A07D3B1E80810083A40F890
:109F6000043B40F804CBF7D25307E4E738B5044686
:109F70009348056800E02D686DB1284600F0D4F9DB
:109F80000028F8D0A868216801406A681040814222
:109F9000F1D1284632BD8B4C2068002803D000F058
:109FA000C3F9002801D1002032BD206832BD2DE95F
:109FB000F8430446884665682888FEF78EFD000B46
:109FC000042804D02046FEF77AFE002095E0288879
:109FD000FEF783FD07466888FEF77FFD6189C7F3BA
:109FE0000322B1EB820FEDD321898142EAD30146EE
:109FF0002046FEF70DFE01264746DFF8C49138469D
:10A0000000F092F960B1381D0AD0786840B1296932
:10A01000814210D0394605F11000FEF731FF50B9EA
:10A02000002E1ABF0026D9F800703F68474508BFC8
:10A030003F68002FE3D1414605F10C00FEF720FFF9
:10A040000028BFD14FF07040FEF754FD06464FF098
:10A050006040FEF74FFDE96831408142B2D0002FE9
:10A06000B0D043F6FF70FEF733FDE988014205D01A
:10A07000204600F044FA0400A7D065684F4FC7F8A7
:10A0800000807D604146204600F09AFB90BB288905
:10A09000FEF723FDC0B201280DD0062806D01128F6
:10A0A00041460DD1204600F0BBFB23E0414620464F
:10A0B000FDF7A6FF1EE04146204600F02AFD19E00C
:10A0C00005F11000FEF7DCFE88B94FF07040FEF796
:10A0D00011FD296900EA01064FF06040FEF70AFD14
:10A0E000864204D065600221204600F09DFD204696
:10A0F000FEF7E5FD002038607860BDE8F2832DE9C9
:10A10000F84F06468A4690469B460A9CDDF82C90FE
:10A110000C9DB8F1000F3CD01421FEF7A0FD10B14A
:10A120006FF0010048E077683889FEF7D6FCC0B2CE
:10A1300040EA0B20FEF7CCFC3881FEF7CEFC000A8B
:10A1400049EA0020FEF7C4FC3881D8F800003861E5
:10A1500044F48A40FEF7BCFC38803089FEF7B8FC36
:10A1600078800020F880184C2088FEF7B1FCB88079
:10A170002088401C2080BAF1000F02D0DAF80000DD
:10A1800018B9281D0CBF00206868F860002078818D
:10A1900002E0706800F11008288D40B131898842D2
:10A1A00005D242462946304600F073FA04E04246A2
:10A1B000314628466B699847BDE8F28F48DA00209F
:10A1C00040DA002044DA00207CDA00202DE9FE434A
:10A1D00006460F46904699460A9D0B9C4046FFF75F
:10A1E000C5FE10B96FF0030008E0029001940095DD
:10A1F0004B46424639463046FFF781FFBDE8FE83B5
:10A20000002200F051BD50F8041B61B150F8042B3E
:10A21000D30744BFA9F101039A18002342F8043B75
:10A22000091FFAD1EFE77047F8B504460698079D75
:10A23000089E00276760A760E76084F82A70E061E5
:10A240002E4F387884F82D00401C38702661204647
:10A2500000F00BF82046A847002801D00020F2BDEE
:10A26000786820607C602046F2BD70B504461546D3
:10A270001E4600F009F82946204600F037F831461E
:10A280002046BDE870402DE070B504460D462868B4
:10A290006168884220D01A48006800E0304640B12A
:10A2A000C66801686268914204BF0121FFF757FA4E
:10A2B000F4E71448006801E00160C06800280BD092
:10A2C000FBD001680029F8D062689142F5D1002DD9
:10A2D0000CBF00212968EFE7002D0CBF0020286883
:10A2E000606070BD01B10968C160704701B1096863
:10A2F0008160704701498860704700003CDA0020A7
:10A30000100000200C00002090F82A10CA0700D589
:10A31000704780B541F0010180F82A10890644BFDA
:10A32000011D00F0B9FF01BD90F82A0000F0010006
:10A33000704700002DE9F04105460E4600246F6885
:10A340007868818891B900686860142205F1080175
:10A350007868FFF7D3FD0121384600F068FC3846E5
:10A36000FEF7CDFC04463846FEF7A9FC6F6809E00D
:10A37000B846786807684046FEF7C1FC04194046B5
:10A38000FEF79DFC002FF3D13146284600F03CF843
:10A39000DFF824040188091B01802046BDE8F08114
:10A3A000F8B504460D460026002000210746DFF8D8
:10A3B00008245268002A09E0C37F92F81FC0634551
:10A3C00000D31046136803B111461A0012D0536926
:10A3D000D4F80CC0634509D19369D4F810C0634523
:10A3E00004D19389B4F804C06345EBD07F1C0028E6
:10A3F000E2D1E6E710B1FFF79DFF8619AE4201DA20
:10A40000022FD1DA3046F2BD10B50268DFF8A8336A
:10A410005C6884420CBF5A600A6001460520FFF761
:10A4200063FC10BD2DE9F04704460D4600260127C8
:10A43000D5F804A0BAF80200FEF74FFB8046BAF840
:10A440000000FEF74AFB8146BAF80600FEF745FB1E
:10A45000C1006868066081804144C9F30322A1EB12
:10A460008201C18061680CE03CD0BCF806108A42D1
:10A4700038D31EB1F188994218BF0027DCF80010CC
:10A48000664691B1D1F804C0BCF8043082889A4283
:10A49000EAD201603EB1F1888A4223D3C1888B425F
:10A4A00020D3356009E0656007E0002EFBD0356001
:10A4B000F1888288914218BF0027A17FC9071BD568
:10A4C00077B161684968898831B1002708E0486838
:10A4D000F18882889142F8D1064601680029F6D1B8
:10A4E00038460AE02846FEF70AFCB3490A88101AE3
:10A4F00008802846FEF7E3FB0020BDE8F0872DE941
:10A50000F84F814600200090D9F804502888FEF7C3
:10A51000E4FAC0F303208000142854D1E888FEF741
:10A52000DCFAC600B6B26888FEF7D7FA0446288877
:10A53000FEF7D3FAC0F30320A4EB80001FFA80FAE1
:10A540004846FEF7DCFB80469B4C208840440B28A5
:10A5500009DB41462846FFF723FF002833D0208837
:10A5600040440B282FDA67680DE07869E968884273
:10A5700007D1B8692969884203D1B889A988884276
:10A5800027D000973F68002FEFD10520FFF79EFBF3
:10A59000074657B941462846FFF702FF404510DB02
:10A5A0000520FFF793FB07465FB120213846FFF7F0
:10A5B00027FE0320F87760683860676000F063F872
:10A5C00000E00027AFB94846FEF779FB0020BDE860
:10A5D000F28F41F6FF7BE888FEF77FFA10EA0B0F57
:10A5E00007D1F889FEF779FA10EA0B0F01D000F0D5
:10A5F0004AF8208840442080E888FEF76EFA8004FC
:10A6000006D4B87F40F00100B8770AEB0600B883A3
:10A6100049463846FFF706FF0028D8D0B88B1430DB
:10A62000B883786841680E680D46142207F1080166
:10A630002846FFF763FCB88BFEF74AFA68800020D3
:10A64000E88068811421284600F08FFE6881D7F8E1
:10A6500004900AE075686FF013013046FEF7FFFAC8
:10A6600031464846FEF758FB2E68002EF2D100997D
:10A670003846FFF7C9FE4846FEF741FB2188081A15
:10A6800020804846A3E71422294607F10800FFF777
:10A6900035BC2DE9F74F84B00D8D4FF01408022220
:10A6A00000210220FEF727FA5FEA000902D14FF0ED
:10A6B000FF307DE0A9F80A50A9F808503F48840807
:10A6C000A400C9F804401422049841682046FFF70A
:10A6D00015FCE088FEF701FA4FEAC04B4FEADB4B6E
:10A6E00000F40050029004980089143886B2A5F155
:10A6F00014000190811000EB51704003000C009099
:10A7000010E04946FEF71AFB069A39460598436958
:10A7100098473846FEF7D3FA701B86B20098584423
:10A720001FFA80FB002E3FD00198B042ACBF01273A
:10A73000002702984FEACB4150EAD1401FFA80FA35
:10A74000002F03BF4AF4005A0098C50035461FFA8F
:10A7500088F3AAB204F114010498FEF73CFB80448C
:10A760005046FEF7B5F9E08005F1140080B2FEF71F
:10A77000AFF96080002060811421204600F0F5FDD3
:10A7800060812FB106F1140189B24846FEF740FA04
:10A79000002200210220FEF7AEF90746002FB0D1BB
:10A7A0004846FEF78CFA82E74846FEF788FA002012
:10A7B00007B0BDE8F08F000050DA00204BCB00203E
:10A7C0002DE9F04780460025D8F80490B9F8080034
:10A7D000FEF783F95FFA80FA0024104E3768D7B18C
:10A7E000387C504513D1D7F814C0604678B109F1D0
:10A7F0000C0342463946B869E04740B14FF00008C3
:10A80000012524B1F868E0603068F86037603C46A4
:10A81000FF68002DE3D02846BDE8F08770DA0020FD
:10A820002DE9F84304460E4665682888FEF755F979
:10A830002189C0F30320800008308142C0F290805B
:10A840002888FEF74AF9000A00F00F008000414214
:10A8500009B22046FEF703FA00284ED16768314658
:10A8600005F11000FEF70CFB81463888FEF735F93C
:10A8700080467888FEF731F9002300219D4A176849
:10A8800001E03B46FF689FB3B7F812C08445F8D19A
:10A89000B9F1000F05D16FB1D7F800C0BCF1000FBE
:10A8A00008D0D7F800C0D5F810E0F44502D0B9F1CF
:10A8B000000FE6D029B997F810C05FEA4C7C58BF6A
:10A8C0003946B7F814C0C445DBD117F1040C08D0E1
:10A8D000D7F804C0BCF1000F1CBFD5F80CE0F4455C
:10A8E000CFD15BB1F868D8601068F860176005E0F8
:10A8F0000F461FB970682969884231D16FF007018E
:10A900002046FEF7ACF958BB5FB1BE69300027D0D6
:10A91000CDF8008005F10C0322463946F869B047AE
:10A9200021E0B9F1000F1BD14FF07040FEF7E2F8C3
:10A9300006464FF06040FEF7DDF82969314081425C
:10A940000ED02888FEF7C9F8C0F30320800000F17C
:10A9500008012046FEF783F90321204600F064F940
:10A960002046FEF7ACF9BDE8F183838A021DF8B5F5
:10A9700004460D4616461F463046FFF7F7FA0028F4
:10A9800002D16FF00300F2BD00903B4632462946EB
:10A99000204600F001F8F2BD2DE9F04784B00446EE
:10A9A000884691469A460C9F608A50B900222146FB
:10A9B000204600F04DF806461EB1304604B0BDE812
:10A9C000F08708214046FEF74AF968B100220821C5
:10A9D0000120FEF790F8054615B94FF0FF30EDE77E
:10A9E0004146FEF7ABF900E045466E68608AFEF727
:10A9F0006FF830805046FEF76BF870800020F080D2
:10AA00000CB1206810B907F1040A0BE0796888429C
:10AA100007D045451CBF2846FEF751F96FF00800E6
:10AA2000CCE7A2462889FEF753F8B08002971120A0
:10AA30000190A07A0090E37A4A4651462846FFF7F3
:10AA40005EFB06464545B8D02846FEF738F9B4E720
:10AA500070B50023274C25682E4603E0B04208BF9E
:10AA60000123F668002EF9D101B1096801609AB995
:10AA70004FF4805200E0521C2E466EB147F6FF7133
:10AA800092B28A4205D0718A914218BFF668F4D119
:10AA9000F1E76FF00A0070BD4282002B04BFC56071
:10AAA0002060002070BD70B504460D461646608AD1
:10AAB00028B9002221462046FFF7CAFFA8B9002D79
:10AAC0000CBF002028686060A682207C40F0040053
:10AAD0002074084801680A4600E0D26812B1944226
:10AAE000FBD101E0E1600460002070BD8161C261C2
:10AAF0007047000078DA002010B50120FFF7E6F873
:10AB0000040004D02021FFF77BFBFF20E0722046E9
:10AB100010BD2DE9F04784B0074688467E6830882E
:10AB2000FDF7DBFF000A00F00F004FEA8009C9F1D2
:10AB3000000421B200F075F8E0B93889042819D36F
:10AB400078680078082815D101254FF07040FDF78E
:10AB5000D1FF316900EA010A4FF06040FDF7CAFFFA
:10AB6000824508BF0025414606F11000FEF788F92E
:10AB700000B92DB9384604B0BDE8F047FEF79FB8DC
:10AB800038890828F6D3384600F0F5FB0028F1D1C3
:10AB9000222100F046F8E0B100F042F80028E9D1A7
:10ABA000002239890220FDF7A6FF0546002DE1D0DD
:10ABB0003946FEF7CBF80028DCD16E6821B2284672
:10ABC000FEF74DF80028D5D13846FEF778F82F4625
:10ABD00005E06FF0210100F024F80028CAD1786860
:10ABE000F1683269F2603161002101704180308981
:10ABF000FDF773FF40F47F40FDF76AFF30810020CE
:10AC0000708100F00DF80028B4D1CDF8088000F074
:10AC100040F8002206F10C013846FFF770FAA9E768
:10AC200049463846FEF71BB80A46032101E00A46AA
:10AC30000B212DE9F04383B0074688469146002258
:10AC400024210120FDF757FF040020D07D686668AD
:10AC500086F8008086F801900020B080F0801C22E9
:10AC6000796860680830FFF749F9002070806189D1
:10AC7000304600F07AFB708000F00BF805F10C0212
:10AC800000212046FFF7A2FA2046FEF718F8BDE89B
:10AC9000F7830120019000200090FF2370470000FF
:10ACA00062F30F2262F31F4200B5130096469446EA
:10ACB000103928BFA0E80C50FAD85FEA417C28BFC1
:10ACC0000CC048BF40F8042BC90728BF20F8022B4E
:10ACD00048BF00F8012B00BD38B5044608E0254602
:10ACE00024686868FDF7EBFF29460620FEF7FCFFA5
:10ACF000002CF4D131BDF8B50024DFF8EC54142059
:10AD000000FB04F67719F87B401CF873B87B022827
:10AD100002D1F97BF02904D201280AD1F87B02285C
:10AD200007D3705918B1FFF7D7FF002070510020EA
:10AD3000B873641C0A2CE2DBF1BD2DE9F84F044620
:10AD40000A220A23964600208DF802009046ADF8AC
:10AD500000004FF01409DFF890A474B1DFF88C0400
:10AD6000007809FB00A7BD7B022D06D125687F680E
:10AD7000BD4202D140B2BDE8F28F002702E0BEF131
:10AD80000A0F06D109FB07A0807B10B94FFA87FE96
:10AD900037E009FB07FC0CEB0A05AE7B78B2012E0D
:10ADA0001FD14CB12668D5F804B05E4504D1DFF858
:10ADB0003C04077078B2DEE75CF80A60002EED7B99
:10ADC00007D09DF80060B5421BD380468DF8005037
:10ADD00017E09DF80260B54213D302468DF8025089
:10ADE0000FE0022E0DD124B1D4F800C06E68B44536
:10ADF000DDD0ED7B9DF80160B54224BF03468DF8A0
:10AE000001507F1C0A2FBADBBEF10A0F07D101F0F7
:10AE10000300012805D10A2B0DDADFB21DE08807F7
:10AE200002D54FF0FF30A6E7BEF10A0FF3DA5FFA62
:10AE30008EFE774611E00A2AB8BFD7B20DDB404636
:10AE40000A28EEDA5FFA88F709FB07F555F80A00D9
:10AE5000FFF742FF002045F80A0009FB07A0002188
:10AE600081730CB1216841600021C1739FE7F8B57F
:10AE700004460D466E680620401EC15C815581194E
:10AE8000875C8F710128F7DA00F0D4F8B081294689
:10AE90002046A269BDE8F84010472DE9F04104467C
:10AEA0000E4690461F4666B1306850B100F037F844
:10AEB00038B900F01AF900F036F8316829408142BB
:10AEC00002D16FF0090028E039463046FFF735FF20
:10AED000002822D4142101FB00F6C34FF0190221EF
:10AEE000817304610621491E0A1811F80830137293
:10AEF0000129F8DA0021C1730BE00868F0514D68B0
:10AF00000620FEF7F1FE434600F0EAF82846FDF77A
:10AF1000D6FEF1590029F0D10020BDE8F08121468C
:10AF20003046FDF7ADBF05464FF06040FDF7E2BD8E
:10AF300000B9704710B549688268D1F81A301340DB
:10AF400044682240934204D100238A1D1A31FFF73E
:10AF5000A4FF10BD2DE9FC4104460D46904634B1D6
:10AF6000B8F80A002A2804D24046FDF7A8FEBDE83A
:10AF7000F381D8F80470FE890120FDF7A9FD86420F
:10AF8000F2D17E8A40F20460FDF7A2FD8642EBD149
:10AF90003E8A00F04FF88642E6D1BE8940F60600B0
:10AFA000FDF796FD8642DFD1042207F11C0100A8BF
:10AFB000FEF7A4FF042207F1260101A8FEF79EFF79
:10AFC000606808B9002603E001998142FAD10126A0
:10AFD000334607F1160200A92046FFF75EFFB88A44
:10AFE000FDF776FD0128BFD1002EBDD00220FDF770
:10AFF0006FFDB88207F1260007F11C010422FEF75D
:10B000007DFF0422211D07F11C00FEF777FF0620BB
:10B01000401EC1198A7D81F820208A7DC255425D7B
:10B020008A75425D8A710128F2DA41462046A2699A
:10B03000904799E74FF40060FDF74ABDF0B583B043
:10B0400004460D4616460E212846FDF708FE002848
:10B0500002D06FF00100FEBDFFF761FF20B10FF2DB
:10B06000B42300F03DF8FEBD00F03FF80746FFF7BF
:10B070005BFF316807EA010282421DD101208DF891
:10B08000000000208DF801005E208DF8020030687D
:10B09000FDF730FD000C00F07F008DF803003068F4
:10B0A000FDF728FD000A8DF804003068FDF722FD49
:10B0B0008DF8050000ABD4E7A0680140626810403D
:10B0C000814204D0E068002807D004F20C062A462A
:10B0D0003146204600F00DF8FEBD6FF00300FEBDC6
:10B0E00004F1210229462046C1E64FF07040FDF7E9
:10B0F00001BD2DE9F84F83460E4617460BF2210895
:10B100004FF0FF345946FFF70BFF50B9FFF7EDFF43
:10B11000FFF709FF316805EA0102824201D006B15A
:10B1200011B96FF009005BE001213046FFF705FE21
:10B13000002855D4142101FB00F9DFF8ACA009EB7D
:10B140000A05A87B10B90120A87302E0012800D0ED
:10B1500027B93146584600F09FF80446002F3ED0EC
:10B16000A87B022808D105F1080342463946584613
:10B17000FFF77DFE044632E0012830D13846017BDE
:10B1800001290CD0002201890320FDF7B4FC5FEAFD
:10B19000000B24D03946FDF7D9FD38B11CE000681A
:10B1A0000028ECD1BB465846FDF7B1FD0620FEF75E
:10B1B0008DFD88B100210160C0F804B059F80A1073
:10B1C00031B100E011460A68002AFBD1086001E0B5
:10B1D00049F80A00002402E05846FDF770FD2046B9
:10B1E000BDE8F28F000000003CD600207EDA00208F
:10B1F0002DE9F74F80469A46DDF830B00D9DDDF819
:10B2000038900F9C00222A210320FDF774FC06468B
:10B2100016B94FF0FF303DE07768A0B2FDF758FC5B
:10B22000B8820620401EC11910F80A208A75425DB6
:10B2300081F820200299415CC155C119019A825CB4
:10B240008A710128EEDA07F11C0059460422FEF744
:10B2500055FE07F1260049460422FEF74FFE012065
:10B26000FDF736FCF881FFF7E5FE388240F2046016
:10B27000FDF72EFC788240F60600FDF729FCB88128
:10B2800031464046D8F81820904704463046FDF72E
:10B2900016FD2046BDE8FE8F00B585B00122039261
:10B2A00002910FF278010191011D009100F121033B
:10B2B0000FF2600200F12101FFF79AFF05B000BD17
:10B2C00038B504460D4660688089FDF701FC4FF4EF
:10B2D0000061401A02D0801F0FD015E02146284699
:10B2E000FFF726FE6FF00D012046FDF7B8FC58B9B8
:10B2F00029462046FEF75BFE09E0224605F12101C2
:10B300002846FFF727FE02E02046FDF7D8FC002084
:10B3100032BD0000FFFFFFFFFFFF00000000000044
:10B320000000000010B5002207E010F8013B10F803
:10B33000014B54EA03239A18891E89B20229F4D2D8
:10B3400011B1007812EB00224FF6FF7101EA020002
:10B3500000EB1240020C12041CBF014001EB104034
:10B3600080B2BDE81040FDF7B3BB80B5FFF7DAFF50
:10B37000C04380B202BD70B505460026002412E02D
:10B3800069896868FFF7CEFF801981B201EB10462A
:10B39000A87AC00706D5C4F10104F0B2C6F30721AC
:10B3A00041EA00262D68002DEAD1E4B224B1F0B2C2
:10B3B000C6F3072141EA0026F04380B270BD0000C9
:10B3C00080B501214FF4804000F01CFB00214FF4B8
:10B3D0008040BDE8044000F015BBF0B587B00446DE
:10B3E0000D46002000900090DFF8CC64306920F01A
:10B3F0001C0701A800F098FA0298DFF8C014091899
:10B40000DFF8BC24914238BF47F0080708D3DFF8C3
:10B41000B4140818DFF8B014884238BF47F00C079E
:10B4200037614FF4004200F0D5F808B90020CCE0B5
:10B43000DFF8980400F06AFA2068002836D00098F7
:10B44000401C0090DFF8887400F0C1F8400702D477
:10B450000098B842F3D30098B842E7D0002000909B
:10B460004FF4805200F0B6F80028DFD00098401C5E
:10B47000009000F0ACF8800602D40098B842F5D3F2
:10B480000098B842D2D000200090102100F0A0F81F
:10B4900041074CBF4FF4006100212162800702D5B3
:10B4A0000020606110E04FF48040FAE7206A616993
:10B4B000490841EAD00292B200F08CF80028B5D0D9
:10B4C0006FF07F4000F022FA3068DFF8081408407F
:10B4D00061680843A1680843E1680843216908439B
:10B4E00061690843A1690843E1690843216A084387
:10B4F000616A0843A16A0843E16A0843216B084373
:10B50000616B08433060A06BE16B0843216C08431A
:10B51000616C0843A16C0843E16C0843216D08434A
:10B52000616D08437060A06DB060E06DF060B0695F
:10B530004FF641710840216E40EA0140616E0843B8
:10B54000A16E0843E16E0843216F0843616F084311
:10B55000B061A06FE16F0843F061DFF87C0381699F
:10B56000DFF878231140D4F880201143D4F88420E8
:10B570001143D4F888201143D4F88C201143D4F817
:10B5800090201143D4F894201143D4F8982011430B
:10B59000D4F89C201143D4F8A02011438161D4F841
:10B5A000A410D4F8A8201143D4F8AC201143D4F847
:10B5B000B0201143D4F8B42041EA8201D4F8B82075
:10B5C000114341F400010160012007B0F0BD0121E9
:10B5D000284677E0002128469AE00021016041607A
:10B5E0008160C160016141618161C161016241624B
:10B5F0008162C162016341638163C163402101646F
:10B600002021416400218164C16401654165816537
:10B61000C16501668021416600218166C1660167BE
:10B6200041678167C1674FF08061C0F880104FF0BB
:10B630000071C0F884104FF08072C0F888204FF479
:10B640000012C0F88C200022C0F89020C0F894208E
:10B65000C0F89820C0F89C20C0F8A020C0F8A41022
:10B66000C0F8A8204FF40031C0F8AC104FF480713E
:10B67000C0F8B010C0F8B420C0F8B820704780B54A
:10B68000012000F06BF8DFF85802016841F48011E6
:10B690000160012000F06DF8012000F0ECF80120BD
:10B6A000BDE80240F2E00020DFF83C1209680968BA
:10B6B000DFF838220A404FF440739A4208BFC1F3C2
:10B6C0000D40704781B000220092DFF824221368F9
:10B6D00003F01C03C00200F478401843890101F410
:10B6E000F861084340F001001060DFF8E4010099C0
:10B6F000491C00911168C90702D500998142F6D30F
:10B70000009981420EBF0020506880B201B070479E
:10B7100018B500230093DFF8D8311C685A6004F094
:10B720001C02C00200F478401043890101F4F86162
:10B73000084340F003001860DFF894010099491CA9
:10B7400000911968C90702D500998142F6D3009982
:10B75000814201D1002012BD012012BDDFF8581135
:10B760000028086814BF40F0080020F008000860B6
:10B770007047DFF844110028086814BF40F0040047
:10B7800020F00400086070474A790B7943EA0222EE
:10B79000DFF860311A50CA788B781B0443EA0262E2
:10B7A0004B7842EA032209781143DFF84C2111500B
:10B7B0007047F0B5DFF82C3118600023044601E033
:10B7C000F5605B1C934210D200EB03152E464FF43C
:10B7D000801737604FF4BE6707FB0317B760571E2B
:10B7E000BB4234BF10352546EAE7DFF8100104609C
:10B7F000F0BD0268114301607047FAE7F0B5DFF869
:10B80000E83018600023044601E0F5605B1C9342B9
:10B8100013D200EB03152E464FF00047376044F279
:10B82000F05777604FF4BE6707FB0317B760571EEA
:10B83000BB4234BF10352546E7E7DFF8C40004609B
:10B84000F0BD426800291ABF5100490842F000418A
:10B8500041607047DFF88000016841F0010101603C
:10B860007047DFF87400006800F001007047DFF8EF
:10B87000941008607047DFF868100028086814BF4B
:10B8800040F4005020F4005008607047DFF850107A
:10B890000028086814BF40F0020020F00200086091
:10B8A0007047DFF864200029116814BF084321EABB
:10B8B00000001060704700000080024000D3CEFE00
:10B8C000C0E1E40040F1E9FD40787D01FFFF0F0099
:10B8D000FFFF04000F8120FF00900240233FDEF8AD
:10B8E0001890024060DA002068DA002000830080AF
:10B8F000108002404080024044800240109002408C
:10B900000C900240149002401C90024001B481B09F
:10B9100000200090019801E00098401E00900098DF
:10B920000028F9D102B0704770B53C490B683C4A19
:10B9300003F00C03042B26D0082B18BF394A22D160
:10B940000B680C6804F48034C3F383430D2B14BFDD
:10B950009B1C062314B9344A5A4314E08D6A8C6A3E
:10B9600004F00F04641CED030AD58D6A8E6AC5F3DA
:10B9700003156D1CB2FBF5F2C6F30325AD1C6A433B
:10B98000B2FBF4F25A4302600B68284A0468C3F31E
:10B9900003139B5C24FA03F343600B684468C3F30E
:10B9A00002239B5C24FA03F383600B684468C3F3AF
:10B9B000C2239B5C24FA03F3C3600968C368C1F324
:10B9C00081318918097CB3FBF1F1016170BD184A1E
:10B9D0000029116814BF084321EA00001060704775
:10B9E000144A0029116814BF084321EA00001060BE
:10B9F0007047114A0029116814BF084321EA00006A
:10BA0000106070470D4A0029116814BF084321EAED
:10BA10000000106070470A49087070470410024027
:10BA200040787D0100127A0000093D0020000020CE
:10BA300014100240181002401C100240281002404E
:10BA400007100240DFF84404018A29B1491E01822F
:10BA500089B209B9012101717047DFF830044189C9
:10BA600029B1491E418189B209B904210170818936
:10BA700029B1491E818189B209B904214170C18966
:10BA800029B1491EC18189B209B904218170704769
:10BA90002DE9F041DFF8F8538021284600F083FAC1
:10BAA0000026DFF8F083DFF8F073DFF8E0430AE008
:10BAB000F15D404600F00EFB4021404600F012FBD5
:10BAC0000028F9D0761CE088B6B28642F0D38021F7
:10BAD000284600F06AFA012020700020208105200D
:10BAE0006081BDE8F081DFF8B01308700320487072
:10BAF000087880F003008870DFF890030321C1808C
:10BB0000C6E7DFF888030189062910D1DFF88C1316
:10BB10000A78C07882420AD148794B785A408B78AB
:10BB20005A40CB785A4009795140884201D00020D0
:10BB300070470120704780B5FFF7E3FF78B1D34825
:10BB4000C078D74901EB8000D4494A7800F8042C2A
:10BB5000001F8A784270CA7882700979C17001BD6D
:10BB60002DE9F84FCF4C802100F0CEF8824602211B
:10BB700000F0C1F80546012100F0BDF8064610218D
:10BB800000F0BFF80746DFF820B3802100F0B6F8D8
:10BB90008046402100F0B2F88146202100F0AEF846
:10BBA000A90141EACA1141EA461141EA071141EAF5
:10BBB000C80141EA890141EA4006102100F09EF8DF
:10BBC0003043B74908704FF4004100F094F806463E
:10BBD0004FF4804100F08FF807464FF4804100F0A9
:10BBE00093F880464FF4005100F08EF881464FF4F0
:10BBF000805100F089F882464FF4006100F084F82B
:10BC000005464FF4007100F07FF800F063F84FF440
:10BC1000807100F079F83043A14948704FF4806199
:10BC200000F06CF806464FF4007100F067F8074624
:10BC30004FF4807100F065F88046802100F061F8D3
:10BC40008146402100F05DF882464FF4004100F04B
:10BC50004FF805464FF4804100F04AF800F03AF8FA
:10BC60004FF4005100F044F830438D4988700821AA
:10BC700000F04AF80646102100F046F80746202159
:10BC800000F042F80546402100F03EF804464FF42B
:10BC9000005100F036F88146012100F032F882466A
:10BCA0004FF4805100F02AF8B90141EAC61141EA87
:10BCB000451141EA041141EAC90141EA8A0141EA18
:10BCC00040044FF4006100F019F820437449C87033
:10BCD000BDE8F18FB90141EAC61141EA481141EAD4
:10BCE000091141EACA0141EA850141EA400670476B
:10BCF000674800F04AB96D4800F047B9584600F06F
:10BD000044B96B4800F041B9204600F03EB9F8B59F
:10BD100000200021674A624B04E0641C082C0ADB07
:10BD2000491C89B2644C2488B1EB840F13DACD5CD2
:10BD3000002DF5D0002445FA04F6F607EDD504EB06
:10BD4000C106B6B202EB40077E70360ABE70401CD8
:10BD500080B26528E1DB107041F20240BDE8F2409C
:10BD600000F01BBA49480089032808D14B480178E4
:10BD7000524A1278914202D14278032A01D000201F
:10BD80007047807881F003018842F8D10120704724
:10BD900038B54A48007840490870414A13784B70DA
:10BDA00054788C709578CD70D2780A715840604084
:10BDB00068405040487135480621C180BDE8314097
:10BDC00066E632480089052800D0704780B53348C0
:10BDD0000178AA291DD14178AA291AD18178374A38
:10BDE0001278914215D1C278B02A12D10079091D7A
:10BDF000C9B288420DD15521202000F0BDFA30484B
:10BE0000016801F4E0612F4A11430160BFF34F8FD5
:10BE1000FEE701BD70B51D4C20782849097801293D
:10BE200023D12949097801292FD123490D88022DD1
:10BE30002BD3E67802280AD12079012825D1304673
:10BE4000FFF751FE002020713220208270BD0428AF
:10BE50001BD102202070FFF76EFE701CE070C0B294
:10BE6000854212D20220E07070BD04280DD1FFF788
:10BE7000A8FFFFF777FF002803D0FFF771FEFFF759
:10BE800087FF012020700020208170BD3400002039
:10BE900000140140004C004028D100201CD3002099
:10BEA000CCD700200018014000080140000C0140E0
:10BEB0000010014010D5002046000020490000205D
:10BEC0000CED00E00400FA052CDA00202DE9F04129
:10BED000CB7803F00F02DB0644BF8B781A430B8844
:10BEE00001240F25DEB21EB3D0F800C0002604FAEC
:10BEF00006F7BE460EEA0308F04514D14FEA860E57
:10BF000005FA0EF82CEA080C02FA0EFE4EEA0C0CAA
:10BF100091F803E0BEF1280F08BF476103D0BEF1DE
:10BF2000480F08BF0761761C082EE0D3C0F800C098
:10BF30004FF48076B34226D3D0F804C0002606F131
:10BF4000080704FA07F7BE460EEA0308F04515D1C4
:10BF50004FEA860E05FA0EF82CEA080C02FA0EFEDD
:10BF60004EEA0C0C91F803E0BEF1280F08BF4761C0
:10BF700091F803E0BEF1480F08BF0761761C082E58
:10BF8000DDD3C0F804C0BDE8F0818068014008003E
:10BF900018BF0120C0B27047C0680140080018BF38
:10BFA0000120C0B27047016170474161704770B5B0
:10BFB000124A1468C0F3034583B2460D3601B340FC
:10BFC00000F44016B6F5401F06D124F070601468E6
:10BFD00024F07064146009E0C00243BF0320A8404D
:10BFE00024EA000024EA030040F0706001B1184325
:10BFF000106070BD024908607047000004000140F5
:10C00000DC00204230B585B004460D46208A4CF64F
:10C01000FF710840E98808432082A0894EF6F31199
:10C020000840A98808432989084369890843A081F1
:10C03000A08A4FF6FF410840A9890843A08200A8C2
:10C04000FFF772FC0D4884420CBF03980298192137
:10C05000484329688900B0FBF1F06421B0FBF1F29C
:10C060001201130901FB130000013230B0FBF1F0A3
:10C0700000F00F001043208105B030BD00380140B2
:10C080000029818912BF41F400514DF6FF72114021
:10C090008181704710B50B065B0F012401F01F0171
:10C0A00004FA01F1012B08BF0C3003D0022B0CBFA6
:10C0B00010301430002A026814BF114322EA010133
:10C0C000016010BD002A828A14BF114322EA0101D7
:10C0D00081827047C905C90D818070478088C0057D
:10C0E000C00D704700880140080018BF0120C0B291
:10C0F000704721E010B50A06520F012301F01F041A
:10C1000003FA04F4012A08BF828903D0022A0CBF73
:10C11000028A828A2240090A03FA01F10088084053
:10C1200012B110B1012000E00020C0B210BD012208
:10C13000090A02FA01F189B2C9430180704700007F
:10C140004181844901600021C1808180704730B500
:10C15000C288521C438992FBF3F403FB14248588A4
:10C16000AC4204D0C480C488006820F8141030BDEC
:10C170008188C288914201D100207047491C4289C0
:10C1800091FBF2F302FB131181808188006830F883
:10C190001100704764217048D2E701466E48D6E727
:10C1A00030B50278AA2A18D14278AA2A15D1827904
:10C1B000C37942EA03228A420FD1427A0123A1F1D4
:10C1C000090503E01C18647A62405B1C9BB2AB4219
:10C1D000F8DB007AD2B2824201D0002030BD0120CB
:10C1E00030BD80B5B0F8091041F6017291420DD111
:10C1F0005521202000F0C0F85848016801F4E061A2
:10C20000574A11430160BFF34F8FFEE749F20342E3
:10C2100091420BD1C07A411E89B232293CBF5149AB
:10C2200008805148002141800121017001BD38B5CD
:10C2300004460D462988FFF7B3FF18B12046FFF7E3
:10C24000D0FF0020288031BD10B52DE070B5474CDF
:10C2500023785B000C339BB24272120A8272002276
:10C2600003E01518165DEE72521CA3F10B05AA42ED
:10C27000F7DB427A012403E025186D7A6A40641CDA
:10C28000A3F10905AC42F7DBAA2404704470012431
:10C2900084700024C4700471447183711C12C471D1
:10C2A00002720B8070BD10B5AA2303704370012386
:10C2B00083700023C370037143710B2383710023C8
:10C2C000C371130A83EA02040472427283720B2060
:10C2D000088010BD2DE9F0414FF48054244D605D7D
:10C2E000A8BB05F6000841F2040047191E4E301D98
:10C2F000FFF73EFF41F20241401A0ED0401E14D11A
:10C3000041F2034239464046FFF79EFF0120605547
:10C310004FF4FA707080002018E00A463946404613
:10C32000FFF794FF0120605511E041F20600405DE7
:10C3300001280CD10F4E307848B941F250123946DD
:10C340004046FFF7B0FF0120605505203070BDE882
:10C35000F081000004D7002030DA00200CED00E06E
:10C360000400FA05460000202CDA002010D5002039
:10C3700030BB00204800002081B000220092044A17
:10C380000092009A801800900098016001B07047F8
:10C39000006C00407FB54FF4164400F03CF8DFF825
:10C3A000046300A93046FFF72DFE40F2255500F04A
:10C3B0002DF8002280213046FFF784FE012130460F
:10C3C000FFF75EFE00F027F8DFF8DC6200A93046D8
:10C3D000FFF718FE00F01AF801213046FFF750FE73
:10C3E00000F019F8B14C00A92046FFF70BFE01221E
:10C3F00029462046FFF74EFE002280212046FFF707
:10C4000061FE01212046FFF73BFE7FBD0122294648
:10C410003046FFF73FBE009400200190ADF80800C1
:10C42000ADF80C000C20ADF80A00704700B585B0DF
:10C4300000F0D0F901219E48FFF7DBFA01219D4869
:10C44000FFF7C5FA012145F27D00FFF7C9FA00F0B8
:10C4500090F900F075F8FFF79DFF00A8FFF764FA68
:10C4600000984FF47A71B0FBF1F09349B0F1807FFE
:10C470000AD2924A0002000A401E5060F020087062
:10C4800000209060072010602020087005B000BDDB
:10C4900000B5AFB00020FFF7ADFD0620FFF7BBFAF7
:10C4A000FEF78EFFFFF7D6F9FFF7DBF90128FBD087
:10C4B00000A8FFF792F8012000900020079007A83D
:10C4C0004FF40071C16000210161C16181620163AB
:10C4D0004163816341664FF0007181664FF4001241
:10C4E000026700228267C2670420289028A8416062
:10C4F0004FF4803181604FF48001C1604FF40051EE
:10C5000001614FF480418161012100A8FEF765FFC0
:10C510006B49086001216B48FFF7C3F92FB000BDDC
:10C5200080B50121FFF7CEF810F0040018BF0120FC
:10C5300002BD80B50120FFF7F3FF6149086001BD2E
:10C540002DE9F843042000F00BF95F4C00F0CEF821
:10C55000062000F005F95D4D00F0FEF843F62010CE
:10C5600000F0FEF85A4E00A93046FFF7AFFC01215B
:10C570004FF02010FFF71BFD0B2000F0DCF800F05F
:10C58000B5F84FF48069ADF8009003208DF80200F3
:10C5900004208DF8030000A93046FFF797FC08201F
:10C5A00000F0C9F800F0D8F84FF4F85000F0C3F8E4
:10C5B000484F00F0A4F84FF4807000F0D1F800F07C
:10C5C00095F80220ADF8000010208DF8030003203C
:10C5D0008DF80200DFF8008100A94046FFF776FCE5
:10C5E000ADF80090182000F0B2F84FF4006000F0B1
:10C5F00077F800F0B1F84FF48050ADF80000182043
:10C6000000F0A5F80420ADF800008DF8030000F05C
:10C6100076F801210820FFF7CAFC2020ADF80000C1
:10C62000182000F067F8402000F05AF800F067F892
:10C630009820ADF80000102000F05CF80821384682
:10C64000FFF7B3FC41F6F06000F04AF803208DF8E4
:10C65000020000F04BF84CF2030000F060F842F2E8
:10C66000D11000F071F84FF46040ADF800000420E4
:10C6700000F040F847F6F83000F045F8012117487F
:10C68000FFF795FC4FF4004000F03DF84FF40070C8
:10C6900000F05AF84FF43E7000F041F8BDE8F18325
:10C6A00000000000004C00400050004000440040EA
:10C6B00001001A1803C0010023ED00E010E000E0C3
:10C6C00074DA002040000100000801400010014021
:10C6D000000C01400014014000180140000230002D
:10C6E000ADF8000004208DF80300704700A9204633
:10C6F000FFF7ECBB8DF8030003208DF8020000A9C2
:10C700003846FFF7E3BBADF8000004208DF80300C6
:10C7100003208DF8020000A94046FFF7D7BBADF813
:10C72000000004208DF8030003208DF8020000A90A
:10C730003046FFF7CBBBADF8000003208DF80200B8
:10C7400004208DF803007047ADF8000004208DF838
:10C75000030003208DF8020000A92846FFF7B6BBAE
:10C76000ADF8000003208DF8020018208DF80300BA
:10C77000704780B500214FF0006000F0E6F84FF4FC
:10C78000A06000F0B1F83D208DF8000002208DF887
:10C79000010000208DF8020001208DF8030000A8A0
:10C7A00000F0A7F8342000F007F8352000F004F876
:10C7B000262000F001F801BD8DF8000000208DF862
:10C7C000010001208DF802008DF8030000A800F0A0
:10C7D00090B8000082B03E48016841F0010101605C
:10C7E00041683C4A1140416001683B4A1140016088
:10C7F000016821F480210160416821F4FE0141605B
:10C80000016821F0A05101604FF47F018160002197
:10C81000C16201910091016841F4803101600168B9
:10C8200001F4003100910199491C0191009919B955
:10C830000199B1F5A06FF2D10168490C01F0010135
:10C8400000910099012900D0FEE724490A6842F0CE
:10C8500010020A600A68920892000A600A6842F0B0
:10C8600002020A604168416041684160416841F4E8
:10C8700080614160C16A1A4A1140C162C16A194AA5
:10C880001143C162016841F08061016001680901E2
:10C89000FCD5416821F47C114160416841F4E81104
:10C8A0004160016841F08071016001688901FCD537
:10C8B0004168890889004160416841F00201416096
:10C8C000416801F00C010829FAD102B0704700005C
:10C8D000001002400000FFF0FFFFF6FE00200240C3
:10C8E00000F0FEFF440601001B4908431B49086095
:10C8F000704770B503781A460121C478ECB1174B24
:10C900001B6803F4E063C3F5E0631B0A4478C3F1DA
:10C910000405AC4085780F2626FA03F32B40234309
:10C920001B010F4C1355007842110E4B00F01F00F5
:10C9300001FA00F043F8220070BD50110A4A03F0DA
:10C940001F03994042F8201070BD084A1140084367
:10C9500007490860704700000000FA050CED00E090
:10C9600000E400E000E100E080E100E080FFFF1F64
:10C9700008ED00E07047FEE7FEE7FEE7FEE77047E0
:10C980007047704700F0B6B980B501214FF0804084
:10C9900000F0E4F920B101214FF0804000F0E9F906
:10C9A00001BD2DE9F0415F4C5F4D604E604F00F0DE
:10C9B0005EF878B1307801280AD100F04FF821886C
:10C9C0005C4A88544FF4FA7081423CBF481C208076
:10C9D00000F049F800F056F888B1414600F044F8FC
:10C9E00055484FF4801100F047F880215348FFF775
:10C9F000DCFA012030700020208005202880BDE86E
:10CA0000F0812DE9F0414E4C4E4D4F4E4F4F00F00E
:10CA10002EF868B13078012808D100F01FF821887D
:10CA20004B4A885464293CBF481C208000F01BF806
:10CA300000F028F880B1414600F016F83E48402149
:10CA400000F01AF810213D48FFF7AFFA01203070CE
:10CA50000020208005202880BDE8F0810220288069
:10CA60003846FFF73BBB20213846FFF742BB40F278
:10CA700025513846FFF73EBB01600022414638464B
:10CA8000FFF708BB40F2266841463846FFF732BB45
:10CA900038B5304C40F225512046FFF72BFBF8B15A
:10CAA00020212046FFF725FB2B4D2046FFF716FBE4
:10CAB0002A2813D12888401C288080B20A280FD346
:10CAC00055212020FFF758FC2448016801F4E0615B
:10CAD000234A11430160BFF34F8FFEE700202880F7
:10CAE00031BD38B54FF0007000F046F9012808D18B
:10CAF0004FF0007000F04AF9144C00F03AF800F0E2
:10CB000033F831BD38B5174C204600F035F901280F
:10CB100007D1204600F03AF9054C00F02AF800F061
:10CB200023F831BD3C0000203E00002034000020EE
:10CB3000004C00401CD3002084E200E000140140BF
:10CB400062D900204200002036000020004400404E
:10CB500064D9002000500040FAD800200CED00E01D
:10CB60000400FA0500000210012229462046FFF7C2
:10CB700091BA40F2266529462046FFF7D8BA80B51B
:10CB800001E000F043F9FEF78EFD0028F9D14020C6
:10CB9000FEF76DFE4FF48030BDE80240FEF767BE41
:10CBA00070B500240025634E4FF400416248FFF742
:10CBB000ECF908B144F001044FF400715F48FFF74D
:10CBC000E4F910B144F00204E4B2082100F031F8B5
:10CBD00010B144F00404E4B2102100F02AF810B1BE
:10CBE00044F00804E4B2202100F023F810B144F02E
:10CBF0001004E4B2402100F01CF810B144F020040D
:10CC0000E4B2802100F015F810B144F04004E4B221
:10CC10004B484178E2B291421CBF447000256D1C24
:10CC2000EDB2142DC0D34178C94301F07F014170AA
:10CC300070BD3046FFF7A9B938B5414CA08801282E
:10CC400026D10020A080207808B1401E20703D48E9
:10CC500041F217010A5C0AB1521E0A54364D0221F4
:10CC60002846FFF799F920B102212846FFF79DF9E0
:10CC700003E002212846FFF796F96078012807D1E2
:10CC800031480078012803D1FEF76AFFFFF73FF82B
:10CC900031BD38B5FFF7CAFBFFF77CFAFFF780FF1D
:10CCA0002A4C274D0AE0A86800F0B3F800F07FF99D
:10CCB000FFF710FBFFF7C0FFFFF7ACF8687801281B
:10CCC000F8D1206838B9FFF7E3FB20680028F1D0DD
:10CCD00000F06AF8EEE7FFF72CFC20680028E2D1AC
:10CCE0001B48016801F4E0611A4A11430160BFF377
:10CCF0004F8FFEE780B512488168491C81604288E9
:10CD000032B1521E92B21AB94FF47A720121818067
:10CD100042801148018839B1491E018089B219B990
:10CD200041F20340FFF739FAFEF797FEBDE80140F4
:10CD3000FEF788BE000C01400018014000100140C1
:10CD40004800002030BB00202CDA002074DA0020DC
:10CD50000CED00E00400FA052EDA0020028A80893A
:10CD600008400A4202D010B1012000E00020C0B209
:10CD70007047C94301827047C1004CBF0849094947
:10CD80000968084018BF0120C0B27047C1004CBFFD
:10CD9000024901490860704704000240040402404F
:10CDA000000402400000024010B588B0002003904B
:10CDB0008DF8100004208DF81100FCF7B3FFFCF78C
:10CDC00063FF2048FBF78AFE07906FF0FF00FBF738
:10CDD00085FE06901C48FBF781FE059003A800F035
:10CDE00029F91A4C1A4802901A4801900020009024
:10CDF00005AB06AA07A92046FDF716FA2046FDF75F
:10CE000079FA2046FDF780FA08B010BD0F4800F00F
:10CE10005FB911B581B0104C01982168401A1928EA
:10CE200003D301982060FCF747FC01986168401A21
:10CE300041F28831884203D301986060FDF75BFFBF
:10CE400013BD0000660AA8C0010AA8C0FCD90020D2
:10CE5000C1B20008F7D0000858DA002038B541F216
:10CE60001801704A01FB002505F58054FDF744FECA
:10CE7000E0600020A071E06840B10120A0750020B2
:10CE8000E07505F5805000210170A18031BDF8B535
:10CE9000044600F0B5F841F21800624900FB0415A1
:10CEA00041F20C06771938797979090441EA006072
:10CEB000B97940EA0120F9790843FBF70FFE0090A9
:10CEC00042F2B06258497059FDF7C2FD3A8900A993
:10CED0007059FDF7E8FD78B9002254497059FDF703
:10CEE00005FE41F20600012141550020F8721CB9EF
:10CEF00041F20340FFF751F9F1BDF8B5494B41F25A
:10CF00000204E5188E8A6F8ABE422ED1002641F2B5
:10CF1000100706EB030C17F80C70D1F804C04FEAA9
:10CF2000C60E2CFA0EFC5FFA8CFC674502D1761C0B
:10CF3000042EECDB2979012917D1042E15D1118992
:10CF400040F60106B1420BD25168002005E0E65AD6
:10CF50008619475CF754401CC0B21689B042F6DB14
:10CF6000E15A4018E052022028711046BDE8F24014
:10CF7000FBF7A5BE70B541F218012A4A01FB002457
:10CF800041F204050322295B0020FBF7B4FD0600F3
:10CF90000CD02A5B04F50061FBF74DFF31462819E0
:10CFA0008068FDF7E2FC3046FBF789FE70BD38B5BE
:10CFB0001C4C04F58055A879022807D141F20200E3
:10CFC00001192046FFF733F90120A871A87D10B997
:10CFD000BDE8324042E7A87910B9BDE8324056E7D3
:10CFE00001280CD14FF48055285D012807D100207D
:10CFF000FFF7C0FF002028550D480521017031BD05
:10D0000070B941F210000749421842F2B0639380B0
:10D01000C0234354A82050700A2090700D20D07077
:10D020007047000030BB0020BC8E0008FBCE00081B
:10D0300048000020814902780A7042784A7082785C
:10D040008A70C278CA7002790A7142794A710146BF
:10D050000020FEF799BB70B50C46002578480068A3
:10D06000866807E062896168A819FCF747FF608954
:10D0700045192468002CF5D1A8B200F0C5F80020AD
:10D0800070BDFEB5002500A800F094F8019E0322B3
:10D09000009989B20320FBF72EFD04000AD0274631
:10D0A0007A89A9197868FCF729FF788945193F68BA
:10D0B000002FF5D102984FF0004101606148C1682E
:10D0C000090603D58021C160002101602046FEBD14
:10D0D00038B50446FFF7D5FF050002D14FF0FF3009
:10D0E00032BD21462269904704001CBF2846FBF749
:10D0F000E6FD204632BD10B504460820FCF7AEFE22
:10D10000002802D14FF0FF3010BD04F214018860F6
:10D110007322CA7574220A764B4A62614B4A4A608E
:10D1200004F22102026006200873444C2078487300
:10D1300060788873A078C873E078087420794874A0
:10D140006079887440F2DC5088823220887502222F
:10D1500041F62800011904F14800FEF72AFB0422D9
:10D1600004F1680104F10800FEF748FB012104F115
:10D170000800FEF766FB012104F11800FEF761FBD1
:10D18000012104F12800FEF75CFB012104F13800C5
:10D19000FEF757FB4FF4400104F14800FEF72DFB6A
:10D1A0004FF4400104F15800FEF727FBFEF767FA41
:10D1B000002010BD3EB500A90022002314461CC16A
:10D1C00023490A681368002B08D500941D49CA68D2
:10D1D000120614D58022CA600C6010E003F40344E8
:10D1E0004FF44075AC4205D1C3F30D431B1F946847
:10D1F000019400E0002300930292D2680A6000A923
:10D200001CC91CC00C383EBD0D490A681368002BB0
:10D2100001D500207047C004C00C5060106840F079
:10D22000304010600B4803695B0703D5042303619A
:10D2300000230360D0680860012070472897002011
:10D2400060DA0020089002403DB0000857D0000886
:10D2500068DA00200490024010B5084979441C3176
:10D26000074C7C441A34A14206D0081D0A685118A4
:10D2700088470146A142F8D110BD00BF0800000058
:10D280002800000083CFFFFF28DA000058000020AC
:10D2900000000000F7C3FFFF580000007401000009
:10D2A000000000200000000000F009F8002801D074
:10D2B000FFF7D2FF0020FFF7ECFC00F002F801209E
:10D2C000704780B500F002B800BF0000074638463E
:10D2D00000F002F8FBE7000080B5C046C046024AF5
:10D2E00011001820ABBEFBE726000200C046C04676
:10D2F000C046C046FFF7D8FFFFF73CBBFFF73BBB7C
:10D30000FFF73ABBFFF739BBFFF738BBFFF737BB77
:10D31000FFF736BBFFF735BBFFF734BBFFF7FEBFA8
:10D32000FFF7FEBFFFF7FEBFFFF7FEBFFFF7FEBF31
:10D33000FFF7FEBFFFF7FEBFFFF7FEBFFFF7FEBF21
:10D34000FFF7FEBFFFF7FEBFFFF7FEBFFFF7FEBF11
:10D35000FFF7FEBFFFF7FEBFFFF7FEBFFFF7FEBF01
:10D36000FFF7BFBBFFF7FEBFFFF7FEBFFFF7FEBF34
:10D37000FFF7FEBFFFF7FEBFFFF7FEBFFFF7FEBFE1
:10D38000FFF7FEBFFFF7FEBFFFF7FEBFFFF7FCBAD8
:10D39000FFF7FEBFFFF7FEBFFFF7FEBFFFF7FEBFC1
:10D3A000FFF7FEBFFFF7FEBFFFF7FEBFFFF7FEBFB1
:10D3B000FFF7FEBFFFF725BBFFF7FEBFFFF7FEBF7E
:10D3C000FFF7FEBFFFF7FEBFFFF7FEBFFFF7FEBF91
:10D3D000FFF7E7BAFFF75CBBFFF7FEBFFFF7FEBF43
:10D3E000FFF7FEBFFFF7FEBFFFF7FEBFFFF7FEBF71
:10D3F000FFF788BBFFF7C3BBFFF7FEBFFFF7FEBF1A
:10D40000FFF7FEBFFFF7FEBFFFF7FEBFFFF7FEBF50
:10D4100000100000000000000000000000000000FC
:10D420000000000000000000000000006E19000075
:10D4300000000000010203040102030406070809BA
:10D4400002040608020000020000000000000000C4
:10D4500000000000320001000000E80300000000AE
:08D460000000000000000000C4
:040000050800D2ED30
:00000001FF
