:020000040800F2
:1000000068D20020EF930008E5920008E79200080C
:10001000E9920008EB920008ED9200080000000051
:10002000000000000000000000000000EF92000847
:10003000F192000800000000F3920008F592000819
:100040001F94000823940008279400082B940008AC
:100050002F94000833940008379400083B9400085C
:100060003F94000843940008479400084B9400080C
:100070004F94000853940008579400085B940008BC
:100080005F94000863940008679400086B9400086C
:100090001D93000873940008779400087B9400086F
:1000A0007F94000883940008879400088B940008CC
:1000B0008F94000893940008979400089B9400087C
:1000C0009F940008A3940008A7940008AB9400082C
:1000D000AF940008B3940008B7940008BB940008DC
:1000E000BF940008C3940008C794000800000000F3
:1000F0000000000000000000000000000000000000
:100100000000000000000000CB940008CF9400081D
:10011000D3940008D7940008DB940008DF9400080B
:10012000E3940008E7940008EB940008EF940008BB
:10013000F3940008FD920008FB940008FF94000867
:1001400003950008079500080B9500080F95000817
:10015000DFF8A806016899B94FF4803181604FF447
:10016000805141604FF0FF31C16001610421416164
:10017000DFF88C160422C1F8B821DFF88816016078
:100180000120704701F1080313F0070308BF0023A3
:1001900007D001F1080303F00703C3F1080303F0DC
:1001A00007035918D21A8161C26042F001034B6003
:1001B000511828224A60DFF844160969C161704766
:1001C0002DE9F04101F1080414F0070408BF0024F0
:1001D00007D001F1080404F00704C4F1080404F096
:1001E0000704611802F1080414F0070408BF002492
:1001F00007D002F1080404F00704C4F1080404F075
:100200000704A5185A186C1AE41A43F003034B604C
:10021000AA4201D301F012B96E68F307FAD5102C87
:10022000F8D383699D4207D1C368E318C360826134
:1002300043F00100506042E143699D4208D1836868
:10024000E3188360426143F0010050609B5036E147
:1002500006F00303012B40F0A080F308DB004FEA17
:10026000D30EBEF1200F26D2AF68D5F80CC065457D
:10027000D0D0BD42CED0674506D10668012707FA27
:100280000EF7BE43066086E04FEA4E0600EB860698
:1002900006F1280E774503D0D0F810E07745B9D3A2
:1002A0002836B44502D00669B445B3D3C7F80CC0AC
:1002B000CCF808706FE0AF69EE68AE420AD0D5F8AE
:1002C00008C0D0F810E0F445A4D3CCF80C60C6F810
:1002D00008C024E005F2140CDCF8006046B905F112
:1002E000100CDCF80060D6B102E0F446DCF80060E7
:1002F00006F2140EDEF80080B8F1000FF5D106F119
:10030000100EDEF80080B8F1000FEED1D0F810E04A
:10031000F445FFF47FAF4FF0000ECCF800E0002F63
:1003200039D0D5F81CC000EB8C0C0CF2301CDCF87A
:1003300000E075450BD1CCF800609EB946680127F6
:10034000D5F81CC007FA0CF7BE43466023E0D0F88E
:1003500010C06745FFF45EAFD7F810C0AC450CBFC6
:100360003E617E61BEB1D0F810C06645FFF452AF69
:10037000B7612F6937B1D0F810C06745FFF44AAFB5
:100380003761BE616F6937B1D0F810C06745FFF4BF
:1003900041AF7761BE615D191C196B685B085B003A
:1003A0006B6044F001035360A450E308202B1BD280
:1003B0005D0000EB850505F228052E46102CFFF4A4
:1003C00029AF012707FA03F304681C4204BF234343
:1003D000036004D0AE6800698642FFF41BAFAA60D8
:1003E000F2609660D5606AE0230A08BF002523D03A
:1003F000B3F5803F28BF1F251ED2A3F580752D0CB5
:1004000005F00805AB40A3F58056360C06F004064F
:10041000B340A3F580473F0C07F00207C5F10E0576
:10042000AD1BED1BBB4005EBD333DD1D24FA05F5F9
:1004300005F0010505EB430500EB850303F23013DE
:10044000D561002656611661012707FA05F647684F
:10045000374207D146EA070444601A609361D260CC
:1004600092602CE01B681F2D0EBF00256D08C5F1A2
:10047000190504FA05F500E033465E68F608F60053
:10048000A6420ED0EE0F03EB860606F110076D00B4
:100490003E68002EF0D100698742FFF4BBAE3A609F
:1004A000DCE79C6800698342FFF4B4AE8442FFF449
:1004B000B1AEE2609A609460D3600020906101F177
:1004C0000800BDE8F0812DE9FE4F0446A56904F25D
:1004D000BC102E4601688E4203D3426851188E42EA
:1004E00002D380680028F5D14168006801EB00085C
:1004F000A8F12F0000F1080111F0070108BF002149
:1005000007D000F1080101F00701C1F1080101F075
:10051000070101EB000A05F11000824538BFAA4629
:100520000AF1080B0AF1180900270198A0F1280226
:1005300000992046FFF726FE1BF0070022D11B2062
:10054000CAF8040004F2BC10B0E80E10ABE80E10BC
:10055000ABF1100B0098C4F8BC010198C4F8C001BD
:100560000298C4F8C801C4F8C4B100E0814609F19A
:1005700004000721C9F804107F1C011D4145F5D373
:10058000022F01DA00F05ABFAA4500F09380AAEBCF
:10059000060041194A68520852004A6040F00101C1
:1005A00069604051C108202919D24A0004EB820237
:1005B00002F2280213461028E4D3012606FA01F0BD
:1005C0002168014206D1084320609560DD60AB6080
:1005D000EA606FE0936820698342F6D2D2E7010AAD
:1005E00008BF002223D0B1F5803F28BF1F221ED2B2
:1005F000A1F58072120C02F008029140A1F580531F
:100600001B0C03F004039940A1F58046360C06F05C
:100610000206C2F10E02D21A921BB14002EBD13196
:10062000CA1D20FA02F202F0010202EB410204EBC1
:10063000820101F23011EA6100236B612B61012616
:1006400006FA02F366681E4207D143EA06006060BC
:100650000D60A961ED60AD602CE009681F2A0EBF36
:1006600000225208C2F1190200FA02F200E0194613
:100670004B68DB08DB0083420ED0D30F01EB830312
:1006800003F1100652003368002BF0D12069864236
:10069000FFF478AF3560DCE7886822699142FFF4A7
:1006A00071AF9042FFF46EAFC5608D60A860E960E5
:1006B0000020A86100F054BBF8B504460D464F4E2B
:1006C000306808B9FFF744FD00F0D4FE010000F0E7
:1006D00091800A6811F1010F00F08C80D4F8B0010C
:1006E0001018C4F8B001D4F8B401D4F8B03198426D
:1006F00038BF1846C4F8B401A06968BB206908B1C6
:10070000814200D22161C4F8BC11C4F8C02100208C
:10071000C4F8C801306860624FF0FF3020622046A4
:10072000202300F22806F660B66008305B1EF8D180
:100730003348844204D1283A2046FFF723FD48E09D
:1007400054F8040CC00814EBC00008385118091AFA
:10075000A1F128020146EFE704F2BC10034600E0D5
:100760009B68BBB15E681F68F619B142F8D11E7B69
:1007700036070FD43E46A769B7420BD35F68D4F85B
:1007800018C0BE19B44505D2D0195860E0681218D7
:10079000A169D1E72369994238BF21610346501806
:1007A00000E09B688BB11E688642FAD1187B000777
:1007B0000BD4304619605E6892195A602B46024687
:1007C000204601B0BDE8F040FAE400232046FFF7E0
:1007D0007AFEE06885420DD2401BE060A1696A188C
:1007E000A26140F00100506045F00300486001F153
:1007F0000800F2BD0020F2BD0000000084C100200E
:10080000CCB800206859883C2DE9F04100224B42C9
:100810000C0A08BF002423D0B4F5803F28BF1F2452
:100820001ED2A4F580752D0C05F00805AC40A4F58A
:100830008056360C06F00406B440A4F580473F0C01
:1008400007F00207C5F10E05AD1BED1BBC4005EB23
:10085000D434E51D21FA05F505F0010505EB440446
:1008600000EB8405D5F8305155B31F2C0EBF002680
:100870006608C6F1190601FA06F6002700E07600C0
:10088000D5F804C04FEADC0C4FEACC0CACEB010C01
:100890009C4502D22A4663467BB1D5F814C04FEA84
:1008A000D67E05EB8E052D69BCF1000F02D0AC455C
:1008B00018BF6746002DE2D13D4675BB002A3DD1E9
:1008C000012505FA04F4640065422C4345682C4078
:1008D00000F0518165422C40651E2C0B04F0100481
:1008E00025FA04F6750905F00805EE40B70807F08B
:1008F0000407FE404FEA560C0CF0020C26FA0CF6E8
:10090000C6F3400E2C193C196444744426FA0EF5C3
:100910002C1900EB8404D4F830517DB100E0254659
:100920006C68E408E400641A9C423CBF23462A46F3
:100930002C69002CF3D16D69002DF1D1002A00F053
:100940001A818468641AA34280F0158116460469EE
:10095000A64206D38C18CD185768FF08FF00AF4297
:1009600001D000F06BBDA642FBD29769D6689642D3
:100970000AD0D2F808C0D0F810E0F445F1D3CCF892
:100980000C60C6F808C023E002F2140CDCF800602A
:1009900046B902F1100CDCF80060CEB102E0F4467A
:1009A000DCF8006006F2140EDEF80080B8F1000FEB
:1009B000F5D106F1100EDEF80080B8F1000FEED18F
:1009C000D0F810E0F445CCD34FF0000ECCF800E0A6
:1009D000002F35D0D2F81CC000EB8C0C0CF2301C70
:1009E000DCF800E072450BD1CCF8006096B946689F
:1009F0000127D2F81CC007FA0CF7BE4346601FE07F
:100A0000D0F810C06745ACD3D7F810C094450CBFE0
:100A10003E617E61A6B1D0F810C06645A1D3B76132
:100A200017692FB1D0F810C067459AD33761BE61FE
:100A300057692FB1D0F810C0674592D37761BE6176
:100A4000102B08D245F003005060A818416841F00F
:100A5000010141608CE041F00301516043F001016C
:100A600061601B51D908202918D24B0000EB830389
:100A700003F228031E46012505FA01F105680D421F
:100A800004BF2943016004D09E6800698642FFF4D8
:100A900068AF9C60F460A660E36069E0190A08BF73
:100AA000002623D0B1F5803F28BF1F261ED2A1F516
:100AB00080752D0C05F00805A940A1F58056360C6F
:100AC00006F00406B140A1F580473F0C07F002078D
:100AD000C5F10E05AD1BED1BB94005EBD131CD1DA8
:100AE00023FA05F505F0010505EB410600EB86014B
:100AF00001F23011E6610025656125610125B540EF
:100B000047682F4207D13B462B4343600C60A161ED
:100B1000E460A4602CE009681F2E0EBF0025750854
:100B2000C5F1190503FA05F500E031464E68F608EF
:100B3000F6009E420ED0EE0F01EB860606F110077E
:100B40006D003E68002EF0D100698742FFF409AFC6
:100B50003C60DCE78B680569A942FFF402AFAB4259
:100B6000FFF4FFAEDC608C60A360E1600020A06158
:100B700002F1080000E00020BDE8F0812DE9F0411D
:100B8000426813465B421A40531E1A0B02F01002D1
:100B9000D3405C0904F00804E3409D0805F0040517
:100BA000EB405E0806F00206F340C3F34007A218CC
:100BB000AA18B218BA18FB409A1800EB8202D2F8B1
:100BC000304123466268D208D200521A07E06568B5
:100BD000ED08ED006D1A95423CBF2A462346256973
:100BE000002D14BF2C466469002CF0D11E46046908
:100BF000A64206D3CC188D185F68FF08FF00AF42ED
:100C000001D000F01BBCA642FBD29F69DE689E4269
:100C10000AD0D3F808C0D0F810E0F445F1D3CCF8EE
:100C20000C60C6F808C023E003F2140CDCF8006086
:100C300046B903F1100CDCF80060CEB102E0F446D6
:100C4000DCF8006006F2140EDEF80080B8F1000F48
:100C5000F5D106F1100EDEF80080B8F1000FEED1EC
:100C6000D0F810E0F445CCD34FF0000ECCF800E003
:100C7000002F35D0D3F81CC000EB8C0C0CF2301CCC
:100C8000DCF800E073450BD1CCF8006096B94668FB
:100C90000127D3F81CC007FA0CF7BE4346601FE0DB
:100CA000D0F810C06745ACD3D7F810C09C450CBF36
:100CB0003E617E61A6B1D0F810C06645A1D3B76190
:100CC0001F692FB1D0F810C067459AD33761BE6154
:100CD0005F692FB1D0F810C0674592D37761BE61CC
:100CE000102A08D245F003005860E818416841F026
:100CF0000101416030E041F00301596042F001011F
:100D00006160125187682FB341694FEAD70CBCF17B
:100D1000200FBFF476AF4FEA4C0500EB850505F2D6
:100D200028052E46102FFFF46CAF012707FA0CF7A9
:100D3000D0F800C01CEA070F04BF47EA0C070760A1
:100D400004D0AE680769BE42FFF45BAFA960F160F2
:100D50008E60CD608260446103F10800BDE8F081DF
:100D600003B0BDE8F08FF8B50446012000F0B7FBF2
:100D7000F52C80F0D3800B2C31BF102404F10B0034
:100D8000C408E400E308DFF8B006016821FA03F5BF
:100D900015F0030233D0EA4302F00102D3185A00DF
:100DA00000EB820202F22805AA68DC005668F60809
:100DB000F600A64201D000F041BB9668AA42FAD0E4
:100DC000B242F8D05768FF08FF00A742F3D1B542FE
:100DD00005D1012505FA03F39943016004E0006998
:100DE0008642E8D3AE60F56044F003005060A0187E
:100DF000416841F00101416002F10805D6E08268D6
:100E0000A24280F09E80002D00F07F80012202FA35
:100E100003F6760005FA03F3754235432B405D4235
:100E20002B405D1E2B0B03F0100325FA03F675090A
:100E300005F00805EE40B70807F00407FE404FEA4A
:100E4000560C0CF0020C26FA0CF6C6F3400EEB180A
:100E5000FB186344734426FA0EF5ED186B0000EBA3
:100E6000830303F22806B368EF00D3F804C04FEA07
:100E7000DC0C4FEACC0CBC459DD1D3F808C0B34282
:100E800099D0634597D0664502BF02FA05F5A9439C
:100E9000016006D001698C458DD3C6F808C0CCF836
:100EA0000C60391B44F003055D60E41841F0010556
:100EB0006560095186681EB34569F708202FBFF4A5
:100EC0007AAF4FEA470C00EB8C0C0CF2280CE6468C
:100ED000102EFFF470AFBA400668164204BF3243CA
:100EE000026005D0DCF808E002699645FFF463AFC4
:100EF000CCF80850CEF80C50C5F808E0C5F80CC086
:100F00008160446103F1080550E0416800293AD04E
:100F10002146FFF733FE050013D047E014F1400FE0
:100F200028BF4FF0FF340CD204F10B00C408E400DA
:100F3000DFF80405416821B12146FFF765FC050093
:100F400034D1DFF8F4048268A2421CD3131B416938
:100F5000102B0AD362184261836043F00100506095
:100F60009B5044F0030048600AE000238360436123
:100F700042F0030048605018426842F001024260AB
:100F800001F1080512E0C1688C420BD2091BC16057
:100F90008269A318836141F00101596044F00300A4
:100FA000506029E72146FFF787FB0546012000F046
:100FB000C1FA2846F2BD002800D17047F8B5A0F16B
:100FC0000804012000F08BFADFF86C542A6994427F
:100FD0001ED3636803F00300012819D0D808C000AD
:100FE0000119DE0729D4266813F0030300F0E2801C
:100FF000301873421C1994420AD36B699C4200F06A
:10100000CA80F308202B67D2A668E768BC4201D1EA
:1010100000F014BAB442FBD0D4F804C04FEADC0CA0
:101020004FEACC0CBCEBC30FF2D1BE4243D12A68CD
:10103000012606FA03F39A432A608C42E8D24A68F2
:10104000D307E5D5930700F15481AB69994240F08D
:10105000B580E9684018E860AC6140F0010161606A
:1010600069698C4202D100216961A960E969814204
:1010700080F0A080DFF8BC03006808B9FFF768F8CB
:10108000A869002800F09680E96829290BD305F2A9
:10109000BC121368984203D35468E318984202D3F1
:1010A0009268002AF5D1E869884280F083804FF089
:1010B000FF30E8617EE05B0005EB830303F1280C61
:1010C000664501D09642A3D328339F4201D0974270
:1010D0009ED3F760BE60B0E7A669E368A34205D07F
:1010E000A768974294D3FB609F601DE004F2140749
:1010F0003B6833B904F110073B68ABB101E06746C8
:101100003B6803F2140CDCF800E0BEF1000FF6D1EE
:1011100003F1100CDCF800E0BEF1000FEFD19742B4
:10112000FFF476AF00223A60002E86D0E26905EB2C
:10113000820202F230121768BC4208D113607BB9F8
:101140006A680123E669B3409A436A6075E72A69D1
:101150009642FFF45DAF3269A2420CBF3361736106
:10116000002B3FF46AAF2A699342FFF451AF9E61AE
:1011700022692AB12E69B242FFF44AAF1A61936123
:101180006269002A3FF459AF2E69B242FFF440AFC2
:101190005A61936151E70A7902F00302032A7FF44E
:1011A0004CAFA8604A68520852004A6040F0010102
:1011B00061600051012000F0BDF9F1BD6B699942F9
:1011C00004D1A9684018A8606C61EFE7D208D2008A
:1011D0001018D308202B24D28E68CF68B9423FF470
:1011E00017AFB1423FF414AFBE4205D129680122C6
:1011F0009A409143296073E0590005EB810101F1A8
:101200002802964203D02A699642FFF401AF2831A2
:101210008F4203D029698F42FFF4FAAEF760BE60B7
:101220005EE08B69CA688A4207D08E682F69BE4229
:10123000FFF4EEAEF26096601EE001F21406326832
:1012400032B901F110063268B2B101E03E463268AF
:1012500002F21407D7F800C0BCF1000FF6D102F17A
:101260001007D7F800C0BCF1000FEFD12F69BE42C4
:10127000FFF4CEAE0027376093B3CE6905EB860648
:1012800006F230163768B9420BD1326016468EB975
:101290006A680123C96903FA01F122EA0101696060
:1012A0001EE02E69B342FFF4B3AE1E698E420CBF3E
:1012B0001A615A61A2B12E69B242FFF4A9AE9361DC
:1012C0000B692BB12E69B342FFF4A2AE13619A6190
:1012D000496929B12B699942FFF49AAE51618A613B
:1012E00040F001016160005169698C4208D1A86039
:1012F00060E7520852004A6040F00101616000510D
:10130000C10820291BD24A0005EB820202F2280202
:1013100013461028FFF47CAE012606FA01F0296876
:10132000014204BF0843286004D0936828698342BF
:10133000FFF46EAE9460DC60A360E2603AE7010AFD
:1013400008BF002223D0B1F5803F28BF1F221ED244
:10135000A1F58072120C02F008029140A1F58053B1
:101360001B0C03F004039940A1F58046360C06F0EF
:101370000206C2F10E02D21A921BB14002EBD13129
:10138000CA1D20FA02F202F0010202EB410205EB53
:10139000820101F23011E2610023636123610126C1
:1013A00006FA02F36E681E4207D143EA060068603F
:1013B0000C60A161E460A4602CE009681F2A0EBFE4
:1013C00000225208C2F1190200FA02F200E01946A6
:1013D0004B68DB08DB0083420ED0D30F01EB8303A5
:1013E00003F1100652003368002BF0D128698642C1
:1013F000FFF40EAE3460DCE788682A699142FFF49E
:1014000007AE9042FFF404AEC4608C60A060E1605F
:101410000020A061286A401E28627FF4CBAED5F878
:10142000C40118B94FF0FF302862C3E68068002875
:10143000FCD1F7E784C10020CCB8002080B50120A2
:1014400000F086B800BF10B450F8041B81B10268E8
:101450001218001D50F8043BDC0744BFA9F1010439
:10146000E31852F8044B43F8044B091FF9D1EBE79A
:1014700010BC704706490868002801D0002070475A
:10148000044808600449C908C900091A0160704786
:1014900034C2002068D2002068D3002070B52B4CE5
:1014A0002068D8B1251D0826284600F05CF82D1DBF
:1014B000761EF9D104F1240000F057F804F1280059
:1014C00000F053F804F12C0000F04FF804F1300064
:1014D00000F04BF804F1340000F047F870BDF8B5A7
:1014E00004461A4D2868D8B92E1D0827304600F04A
:1014F00039F8361D7F1EF9D105F1240000F034F8CB
:1015000005F1280000F030F805F12C0000F02CF86F
:1015100005F1300000F028F805F1340000F024F85F
:1015200001202860052C04D205EB8400243000F053
:101530001DF8F1BD052800D3704780B5034901EBC4
:101540008000243000F013F801BD0000E4C000204A
:1015500080B500F00DF8024A11001820ABBEFBE781
:101560002600020070477047704770477047704709
:1015700080B500F015F802000023DB4310689842A4
:1015800004D011000220ABBE0020106050689842C9
:1015900004D0111D0220ABBE0020506001BD000030
:1015A00000487047840000202DE9F04FA5B0174691
:1015B0001C460FF6B455D5E90023CDE9122303AD3F
:1015C0006860A9600020E86214AE4FF00A096FF06D
:1015D000004800E057440020ADF8020012AB4FF085
:1015E000FF3239460DF1020001F019F88246BAF1D6
:1015F000010F08DA3878B0F1010A6AEB0A0A6FEADB
:101600000A004FEAD07ABDF8020025280CBFAAF1E3
:1016100001025246012A0ADB394602A800F0D4FF33
:10162000002804D54FF0FF3025B0BDE8F08FBDF89D
:101630000200252807D100206861A861E8612862BE
:101640006862A86205E00028C4D1E86AECE740F0CF
:10165000010017F8011F2029F9D023290DD02B29CB
:1016600004D02D2906D030290AD00CE040F0020029
:1016700080B2EEE740F00400FAE740F00800F7E738
:1016800040F01000F4E72A290DD12268111D2160D5
:1016900011686963002904D54942696340F0040078
:1016A00080B27F1C10E00021696307E0696B41454F
:1016B00003D009FB0121303969637F1C3A78A2F11C
:1016C0003001C9B20A29F1D339782E291CBF4FF055
:1016D000FF3129631BD117F8011F2A2906D122687F
:1016E000111D2160116829637F1C10E0002129630E
:1016F00007E0296B414503D009FB012130392963FB
:101700007F1C3A78A2F13001C9B20A29F1D32887A7
:1017100039780FF6E86000F0A3FF08B117F8010B65
:101720008DF846009DF84600682804D1387868286E
:101730000AD1622005E06C2806D138786C2803D1E4
:1017400071208DF846007F1C14A828613A78104655
:10175000253827D01C3800F08780001F022840F26F
:101760008380133800F0AC8009387DD0801E00F0F3
:101770004481401E00F0ED80401E022874D9001FF5
:1017800000F0E780401F44D0401E00F09980401ECA
:1017900031D0C01E0CD0801E00F09280C01E00F020
:1017A0008F804BE16869411C6961252181554FE1BA
:1017B0009DF846006C28216813D0081D2060086839
:1017C000E8602A6B002A08D4002100F059FF0028A5
:1017D0001ABFE968401A286B01E000F07DFFA8619C
:1017E00036E1081D2060096802A800F0C5F900284C
:1017F00040F12E811FE12168081D2060086800214A
:10180000CDE9020114A8E860782102A800F015FBD8
:101810001EE19DF8460062281FD068280DD06A2876
:1018200012D06C2802D071280ED074282168081DAF
:1018300020600868E96A01600AE1E86A2268111D0F
:1018400021601168088003E1E86AC11723681A1D46
:1018500022601A68C2E90001FAE0E86A2268111DF4
:10186000216011680870F3E02068C01D20F00700B7
:101870002060034603F108002060D3E90001CDE9B0
:101880000201002904D56869411C69612D210DE020
:10189000288F810704D56869411C69612B2105E007
:1018A000C00704D56869411C6961202181556869B8
:1018B00014A94018E860114602A800F04DFBC7E0EB
:1018C0009DF846006C280FD0712801D06A280BD1F2
:1018D0002068C01D20F007002060034603F10800C7
:1018E0002060D3E9000104E02168081D2060086839
:1018F0000021CDE902019DF8460068280CD062283D
:1019000006D0742801D07A280CD1DDE9020106E066
:10191000DDE90201C0B202E0DDE9020180B200218E
:10192000CDE9020195F83800000760D5DDE9020134
:1019300009B900285BD042F02000782857D16869A7
:10194000411C6961302181556869411C696182557A
:101950004DE09DF8460062280CD0682810D06A2817
:101960001AD06C2824D0712816D0742820D07A2858
:101970000CD01DE02168081D206091F900001BE0DB
:101980002168081D2060B1F9000015E02168081DDC
:1019900020600868002110E02068C01D20F00700CA
:1019A0002060034603F108002060D3E9000104E051
:1019B0002168081D20600868C117CDE90201DDE932
:1019C000020100290EDB288F810704D56869411CBC
:1019D00069612B210AE0C00709D56869411C69616A
:1019E000202103E06869411C69612D2181556869E6
:1019F00014A94018E860114607E79DF846006C28D6
:101A000007D06869411C69612268111D2160116855
:101A1000CCE62168081D20600868ADF804000020AD
:101A2000ADF806004FF0FF30286301A902A800F0CE
:101A3000A3F800280CD54FF0FF300AE06869411C7C
:101A40006961252181551AB16869411C6961825516
:101A500000207F1C00287FF4E5AD686B6969401A9F
:101A6000296A401AA969401A696A401AE969401A44
:101A7000A96AA0EB010A95F83800400711D420208C
:101A80008DF80000BAF1010F0BDBD346012200A94B
:101A900002A800F099FD00287FF4C4ADBBF1010B52
:101AA000F4D16A6914A902A800F08EFD00287FF421
:101AB000B9AD30208DF80000D5F820B0BBF1010F92
:101AC0000ADB012200A902A800F07EFD00287FF4B5
:101AD000A9ADBBF1010BF4D1AA69E96802A800F035
:101AE00073FD00287FF49EAD30208DF80000D5F8FE
:101AF00024B0BBF1010F0ADB012200A902A800F00B
:101B000063FD00287FF48EADBBF1010BF4D1EA69CF
:101B1000A869E968411802A800F056FD00287FF482
:101B200081AD30208DF80000D5F828B0BBF1010F51
:101B30000ADB012200A902A800F046FD00287FF47C
:101B400071ADBBF1010BF4D195F8380040077FF57A
:101B500042AD20208DF80000BAF1010FFFF63BAD39
:101B6000012200A902A800F02FFD00287FF45AAD41
:101B7000BAF1010AF4D12EE52DE9F04F93B00746F2
:101B80000C46D7F83490B9F1000F48BF6FF0004908
:101B900000F0BDFDB96B00EB010A0FF66822D2E937
:101BA0000001CDE9010197F83C00400702D4BAF1E9
:101BB000410F05D20DF10C0B4FF0400A00250AE051
:101BC0005046FFF7D0F85FEA000BF7D14FF0FF3037
:101BD00030E1A9EB0809B9F1010FC0F2A08001AA18
:101BE00021880DF1010000F097FD5FEA000804D4A0
:101BF000208828B9B8F1010802D54FF0FF3512E16D
:101C0000C145C0F28C80B86908EB00018A4577D2E3
:101C1000BD634042796A401AF969401AB96A401AAC
:101C2000396A401AF96A451A97F83C0040070ED401
:101C300020208DF80000012D09DB2E46012200A98D
:101C4000384600F0C1FC0028D7D1761EF6D1BA691B
:101C50005946384600F0B8FC0028CED130208DF827
:101C600000007E6A012E08DB012200A9384600F040
:101C7000ABFC0028C1D1761EF6D1FA693969384625
:101C800000F0A2FC0028B8D130208DF80000BE6A18
:101C9000012E08DB012200A9384600F095FC00283F
:101CA000ABD1761EF6D13A6AF869396941183846DF
:101CB00000F08AFC0028A0D130208DF80000FE6AD8
:101CC000012E08DB012200A9384600F07DFC002827
:101CD00093D1761EF6D197F83C0040070ED5202010
:101CE0008DF80000012D09DB012200A9384600F023
:101CF0006BFC00287FF481AF6D1EF5D10025BD611E
:101D000042460DF10101B869584400F013FDB8696D
:101D10004044B86134F8020B00287FF45AAFB86B26
:101D2000B969401A796A401AF969401AB96A401AC1
:101D3000396A401AF96AA0EB010897F83C0040079D
:101D400010D420208DF80000B8F1010F0ADB4446C2
:101D5000012200A9384600F037FC00287FF44DAF7F
:101D6000641EF5D1BA695946384600F02DFC0028AA
:101D70007FF443AF30208DF800007C6A012C09DB32
:101D8000012200A9384600F01FFC00287FF435AF7F
:101D9000641EF5D1FA693969384600F015FC00284F
:101DA0007FF42BAF30208DF80000BC6A012C09DBDA
:101DB000012200A9384600F007FC00287FF41DAF7F
:101DC000641EF5D13A6AF86939694118384600F05D
:101DD000FBFB00287FF411AF30208DF80000FC6A77
:101DE000012C09DB012200A9384600F0EDFB002898
:101DF0007FF403AF641EF5D197F83C00400710D57F
:101E000020208DF80000B8F1010F0ADB012200A9A3
:101E1000384600F0D9FB00287FF4EFAEB8F1010896
:101E2000F4D1BD61BD6303A883451CBF5846FFF7CD
:101E3000C2F8284613B0BDE8F08F2DE9FA4786B006
:101E40000546686900909DF818006F2808BF0827AC
:101E500005D040F02000782814BF0A2710273C2422
:101E6000D5E90001064689469DF81820642A01D06C
:101E7000692A04D1002902DA764269EB4909B9F1ED
:101E8000000F0DD166B9686B50B9082F3FD195F896
:101E90003C0000073BD5641E00983021215436E0F9
:101EA000A4F101084446F817CDE9047030464946CC
:101EB000DDE9042300F080FCCDE90201B246DDE952
:101EC0000223DDE90401A0FB02695046801B30308B
:101ED000C0B23A2803D39DF8181051390818009958
:101EE00008F80100DDE90269B9F1000F00D126B15F
:101EF0002869009961188842D2D3082F07D195F834
:101F00003C00000703D50098205C3028C3D1C4F101
:101F10003C00E861009961182961696B884207DA21
:101F2000081A6862A88F4FF6EF710840A88710E082
:101F300000290ED595F83C1001F01401102908D1A4
:101F4000A96BAA69891A6A6A891A0C1A012CA8BF96
:101F50006C6208B0BDE8F0872DE9F24F8EB00546FF
:101F600004AFD5E90001CDE902019DF8380040F049
:101F700020008DF8000061280BD0686B002848BF56
:101F8000062005D405D19DF80000672801D1012065
:101F900068636968C1F30A5040F2FF72904225D02D
:101FA000012819DA284600F095FC012814DB0024EA
:101FB00000209DF80010612940D12A69511C296137
:101FC0003021117029694A1C2A619DF83820612A44
:101FD0000CBF782258222DE040F2FE316A6861F38E
:101FE0001E526A60441A4FF0FF30E2E7080301D145
:101FF000286870B10320E8619DF838006138C0B2EC
:102000001A2811D30FF208610322286900F092FB0D
:102010009EE10320E8619DF838006138C0B21A28BB
:1020200005D30FF2F451EFE70FF2E051ECE70FF2B6
:10203000E451E9E70A70A969891CA96110B9002671
:10204000B0467BE19DF80000612840F09780686B06
:1020500000284CBF2126461C36B2771CD5E900ABC0
:10206000DDE902010022002300F056FC3ABF8BF0AC
:102070000040CDE902A0CDE902ABA4F104088DF83F
:1020800010200DF11109012F33DBDDE902010022DF
:10209000002300F059FC2CD21C2102A800F06CFC9B
:1020A000DDE9020100F0F4FC0446FF1F012F09DB0B
:1020B00000F01AFD02460B46DDE9020100F02CFD9E
:1020C000CDE9020109F207000721012C0BDB491EB3
:1020D0005EBF04F00F0200F8012D2411F5D502E0D7
:1020E000002200F8012D491EFAD500F20709012F40
:1020F000CBDA0DF11100A9EB00010DF11107B1428E
:10210000B8BF0E4636B2002E31D43046884206DAC9
:1021100004A941184978082928BF0F2100D20021BD
:1021200004AA821800E0761E401E12F801398B4284
:10213000F9D00F2904D104A941184A78521C4A70D9
:10214000002803D504AF761C08F1040836B2701ECF
:102150000DD4C1190A783032D2B23A2A03D39DF88D
:1021600038303A3B9A1801F80129401EF2D5686BC5
:10217000002840F1E380701E6863DFE0DDE90201C2
:102180000022002300F0C8FB05D2DDE9020181F046
:102190000041CDE9020124B247F2975060436E49F5
:1021A00090FBF1F80FFA88F8C8F107040027DFF870
:1021B000AC91012C19DBDDE902ABE00707D55046F5
:1021C00059463A464B4600F067FD82468B466410FE
:1021D000384649463A464B4600F05EFD074689467A
:1021E000002CEAD1CDE902AB21E064429246DFF84F
:1021F00070B114D0E00707D5504659463A464B46D1
:1022000000F04AFD82468B466410384649463A46FD
:102210004B4600F041FD07468946002CEAD1DDE936
:10222000020152465B4600F009FECDE902019DF82D
:10223000000066280CBF08F10A000620696B4618EA
:10224000142EA8BF132630208DF810000DF11104B4
:10225000444F012E2FDBDDE9020100F02FFC04F1D9
:10226000080104220A23B0FBF3F403FB140030300E
:1022700001F8010DB4FBF3F003FB1043303301F818
:10228000013D521EEED101F10804083E012EE0DBB3
:10229000DDE9020100F012FC00F030FC02460B46C2
:1022A000DDE9020100F038FC00223B4600F0F4FCBE
:1022B000CDE90201CFE70DF11100201A0DF1110750
:1022C0009DF81110302906D1401EA8F1010817F819
:1022D000011F3029F8D09DF80010662904BF0FFABD
:1022E00088F808F1010103D065290CBF0121002104
:1022F0006A6B8E1836B2B042B8BF064636B2002EB0
:102300001CD43146814204DAC85D352828BF392003
:1023100000D23020CA19521E00E0761E491E12F863
:1023200001398342F9D0392802D1C85D401CC85513
:10233000002903D57F1E761C08F101080FFA88F0EA
:10234000009033B23A469DF83810284600F010F855
:102350000FB0BDE8F08F0000A0860100000024400F
:102360000000F03F84D7974100000000000000000B
:102370002DE9F04786B006468A4690461C46BDF9D0
:10238000385000F09CFE406A90F80090776B012C6A
:1023900002DA01240FF284284AF02000662807D0D0
:1023A00067287AD16FF003018D427CDBBD427ADA77
:1023B0006D1C66280AD096F83C00000702D4BC4287
:1023C000B8BF27462DB27F1B48BF00273069F1698F
:1023D0002DB2012D21DA4A1C30230B54012F03DAD0
:1023E00096F83C10090702D502F80090521CF261E1
:1023F000EF42B8BF7D422DB26942B162EF19A742E8
:10240000B8BF3C4624B2346222464146F3691818EC
:1024100000F090F9381BF062BFE00818AC4216DA01
:102420002246414600F086F9F1696118F161281BE6
:10243000B062012F03DA96F83C00000705D5306939
:1024400001F80090306A401C3062F762A5E02A462D
:10245000414600F06FF9F0692818F061641B012F04
:1024600003DA96F83C10090704D5411CF161316983
:1024700000F8019024B2A742B8BF3C4624B22246DD
:1024800005EB0801F0693369C01800F053F9F069F1
:102490002018F061381BB0627FE0BAF1610F14D1EF
:1024A0004FF0700A16E0BC4204DA96F83C100907B7
:1024B00058BF27467F1E48BF0027BAF1670F14BFD9
:1024C0004FF0450A4FF0650A04E0BAF1410F08BF2A
:1024D0004FF0500AF1694A1C306918F8013B0B545F
:1024E000012F03DA96F83C10090702D502F8009094
:1024F000521CF261012F10DB641E24B2A742B8BF48
:102500003C4624B222464146F369181800F012F9FD
:10251000F0692018F061381BB062F069316900EB96
:10252000010808F801AB002D5CBF2B2008F8010B57
:1025300003D52D2008F8010B6D42002402AF2DB207
:10254000012D0EDB0A22294600A800F0D1FD0198DA
:1025500007F8010B009D641C2DB2012DF2DA022C4C
:1025600006DA4AF02000652804BF302008F8010B85
:102570001CB9302008F8010B09E0012C07DB641EB0
:1025800002A8205C303008F8010B012CF7DAF06962
:1025900031694018A8EB0000306296F83C0000F06A
:1025A000140010280DD1B069F1690818B16A081833
:1025B000316A0818F16A0818B16B8842BCBF081A62
:1025C000706206B0BDE8F08770B504460D46164649
:1025D0000020002E10D015F8011BE068A26890477B
:1025E000E060002802D14FF0FF3070BD206B401C2E
:1025F00020630020761EEED170BD0000686A6C7406
:102600007A4C000000000000000000006E616E00C7
:102610004E414E00696E6600494E46003000F8B5E6
:1026200004460D4616461F4600F06AFD3B463246FC
:102630002946204601B0BDE8F04000F079BD50F8D1
:10264000041B61B150F8042BD30744BFA9F1010367
:102650009A18002342F8043B091FFAD1EFE77047AC
:102660000278C9B28A421AB11CBF10F8012FF9E7EB
:1026700018BF002070470268531C03601170704738
:10268000C9B2830706D0521E22D310F8013B9942EB
:10269000F7D11FE0083A13D302F1040241EA012105
:1026A00041EA014150F8043B121F21BF4B40A3F106
:1026B000013C2CEA030C1CF0803FF3D0C9B2001F90
:1026C000083210F8013B521E28BF91EA030FF8D8D8
:1026D00018BF0120401E704700F10103810704D09C
:1026E00010F8011B89B18107FAD10268B2F10131FA
:1026F000914311F0803F04BF50F8042FF6E710F823
:10270000011B11B110F8011BFBE7C01A704780B51F
:1027100000F0F6FC012002BD70B504460D461646D9
:1027200000F0EEFC324629462046BDE8704000F03D
:10273000F1BC00004AB38B0707D0521E11F8013BD1
:1027400000F8013B21D08B07F7D183071ED1103A47
:1027500007D330B4B1E83810103AA0E83810F9D2F5
:1027600030BC530724BFB1E80810A0E8081044BFEC
:1027700051F8043B40F8043BD20724BF31F8022B48
:1027800020F8022B44BF0B7803707047083A07D338
:10279000B1E80810083A40F8043B40F804CBF7D2FF
:1027A0005307E4E713F0004C03D55B42524263F158
:1027B00000039CEA210C15D11B4229D109424CD1BE
:1027C0002AB18446B0FBF2F002FB10C2704700F061
:1027D000CFBCFCD30022002370470B000200002175
:1027E0000020704710B5644603D34942404261F16E
:1027F0000001FFF7E1FF640004D34942404261F168
:102800000001244203D55B42524263F1000310BD34
:10281000904271EB030CE0D370B5B1FA81F4B3FAD6
:1028200083F52C1BA340C4F1200532FA05F633438F
:10283000A2405FF00046E64002E05B085FEA320239
:10284000841A71EB030524BF204629467641F4D350
:1028500002000B003000002170BD012AB9D970B50B
:10286000140C20D0B1FA81F4B2FA82F5C4F120043C
:102870006419B4F12006D6D3B2405FF00044F440AE
:10288000002502E052085FEA3303C61A71EB020E1C
:1028900024BF3046714664416D41F3D302000B0002
:1028A0002000290070BD0C46B1FBF2F102FB11457E
:1028B0002D0445EA1045B5FBF2F402FB145580B235
:1028C00040EA0545B5FBF2F002FB105240EA044035
:1028D00070BD000070B4416801F0004201210D4B51
:1028E00044681C40446001D104686CB104684568C8
:1028F000E60F46EA4505456064000460491EEC02A7
:10290000F4D544682340436043681A434260084654
:1029100070BC7047FFFF0F004FF4001C1CEB410F11
:1029200094BF1CEB430F09E041EA030C50EA4C0C46
:1029300052EA0C0C03D2994208BF9042704714BF70
:102940008B428242704700004FF4001C1CEB410F89
:1029500094BF1CEB430F09E041EA030C50EA4C0C16
:1029600052EA0C0C03D28B4208BF8242704714BF5C
:10297000994290427047000070B504460D46606869
:10298000C0F30A5040F2FF71884209D16068000329
:1029900002D12068002801D0022070BD012070BD46
:1029A00030B92046FFF796FF012801DB002070BDFB
:1029B000012D0EDB40F2FF71091A8D4209D36068C8
:1029C000002847BF00202F4900202F49C4E90001FB
:1029D000E4E74142A942616806DA2C4A11404019F5
:1029E00041EA0050606049E001F000416268120372
:1029F000120B42F480126260401E451905F1350049
:102A0000352803D361600020206070BD002215F1DD
:102A10001F0F05DA203522686068206000206060A2
:102A2000684213D0521E9241D243C0F12003256860
:102A30009D4055EAD2722568C540666806FA03F3E0
:102A40002B432360636823FA00F0606060680843EA
:102A50006060B2F1004F03D80AD12078C00707D5D3
:102A60002068401C2060206810B96068401CB9E7ED
:102A70006068884202D12068002897D04FF0FF306C
:102A800070BD00BF0000F0FF0000F07FFFFF0F806F
:102A9000F446400D40EAC120490006D200F013F888
:102AA000004248BF6FF00040604700F00CF84FF064
:102AB000004188428CBF084640426047400D40EAD2
:102AC000C12049000CD240F00040490DA1F58061C1
:102AD000491C05D4D1F11F0154BFC840C01770472D
:102AE0004FF0000070470000010040F10880F446FC
:102AF000404200F004F851F000416047010009D065
:102B0000B0FA80F18840C91CC1F58461090501EB68
:102B1000D02140057047000070B44FF0004591EAA5
:102B2000030F44BF6B4000F02EBB841A71EB030609
:102B300004D26E40001BB141121973414FF4001CC6
:102B40001CEB410F34BF7CEB430684E00C0DA4EB7F
:102B50001356362E7DDC012E43DC45EAC32343EABF
:102B6000525312BFD20292025B08240545EAC121EA
:102B700041EA5051D2EBC020994125D407D1B0FA97
:102B800080F610FA06F164D00020203608E0B1FA91
:102B900081F6B140C6F1200220FA02F21143B040A2
:102BA0004FEAF474B4EB465434F001064FEA74046F
:102BB0000AD8D6F50016760D04F00044F04061FA0C
:102BC00006F25040F1404840C00A40EA415021F02E
:102BD000004128BF5FEA500550F1000044EBD121CD
:102BE00037E045EAC323DB0A45EAC121C90AB6F149
:102BF00020050EDD42EA0242120CC5F1200603FA5E
:102C000006F6EB4042EA06056D42984161F100018B
:102C10000DE062FA06F5F240554063FA06FC82EADE
:102C20000C02F3405A406D42904161EB030111F4F4
:102C3000801F05D1641E620502D06D0040414941EC
:102C400021F48011430875F1004350F1000041EB7D
:102C5000045170BC70471CEB410F15D223F00043A8
:102C600052EA43060BD04FEA4C0CBCEB410F04D8A0
:102C70000C0D661E342EB7DDEBE7801A994150EA41
:102C8000410608BF0021E4E708BF1CEB430F28BF43
:102C90006FF00001DDE70000B0B581EA030C0CF035
:102CA000004C40F2FF7515EA11541DBF15EA135789
:102CB000AC42AF4239E0E41923EA455343F48013B0
:102CC000C90241F0004141EA505EC7021100A7FB72
:102CD000020200284FF00000EEFB01204FF000013F
:102CE000E3FB072118BF42F00102401800214941CF
:102CF000E3FB0E01A4F580640F0302D252004041B1
:102D0000494154F101046CDD470872F1004250F171
:102D1000000051EB0451A1F580115CBF41EA0C01A8
:102D2000B0BD4CEA05510020B0BD05EA1357AC42D6
:102D300014BFAF4241E050EA410E1CBF52EA430EBD
:102D400002E061460020B0BD24423C441BD15FEA52
:102D5000070EF6D0090302BF01460020AEF1140EA3
:102D6000B1FA81F7AEEB070401FA07FE0C37C7F1A1
:102D7000200100FA07F7C8404EEA000E23EA455347
:102D800043F48013A2E733F00043B3FA83F704BFA0
:102D9000B2FA82FE77440B3FE41BB7F1200E2FBF3F
:102DA00002FA0EF3BB40C7F1200E22FA0EFE38BF26
:102DB00043EA0E03BA40641C82E750EA410E14BF96
:102DC00052EA430E6FF000014FF4001717EB430F68
:102DD0008ABF194617EB410FB5E74CEA05510020B1
:102DE000B0BDD4F10104B4F120070FDAC4F120071B
:102DF000520828BF42F0010210FA07F501FA07F75E
:102E0000E1BF2A43E0403843E1400FE0352C98DC35
:102E1000C7F1200452EA400220FA07F218BF42F03C
:102E2000010231FA07F0A1400A43002172F1004289
:102E300050F1000051EB0C01B0BD0000F0B540F2C4
:102E4000FF7581EA030C0CF0004C15EA11541DBF0C
:102E500015EA1357AC42AF42E5E0BC41C1F31301A0
:102E6000C3F31303801A994143F4801304D2641E00
:102E70004000494180185941C90241EA5051B1FB13
:102E8000F3F603FB1611A2FB0675D7EBC020A94190
:102E900002D2761E80185941C90241EA5051B1FB55
:102EA000F3FE03FB1E11A2FB0E75D7EBC020A94158
:102EB00003D2AEF1010E80185941890241EA9051C6
:102EC000760546EA8E2EB1FBF3F603FB1611A2FB44
:102ED0000675D7EB8020A94102D2761E8018594191
:102EE000C90241EA50514EEA060EB1FBF3F603FB6C
:102EF0001611A2FB0675D7EBC020A94102D2761E9F
:102F000080185941C90241EA5051B1FBF3F703FB64
:102F10001711A2FB0735D3EBC020A94167F10007C9
:102F20000CBF004247F0010766F3D5274FEA1E3178
:102F3000B80814F5806412DDBD0775F1004250EB4E
:102F40000E5051EB045111F5801F5CBF41EA0C019A
:102F5000F0BD4CF07F6141F0E0410020F0BDBD07C5
:102F60006D0840EA0E5041F48011D4F10104B4F12F
:102F700020060ADAC4F120060200E04001FA06F356
:102F8000E1401843B24015430EE0342C13DCC6F187
:102F9000200445EA40056D0820FA06F2154321FA9F
:102FA00006F0A1400D43002175F1004250F10000F0
:102FB00051EB0C01F0BD00205FEA0C01F0BDCFB970
:102FC00092185B41B3FA83F704BFB2FA82F6BF19D5
:102FD0000B3FB7F120062FBF02FA06F3BB40C7F143
:102FE000200622FA06F638BF3343BA401CB1E41972
:102FF000641E33E77F4231F00041B1FA81F404BF2F
:10300000B0FA80F6A4190B3CB4F120062FBF00FAE9
:1030100006F1A140C4F1200620FA06F638BF31437C
:10302000A0403C1B1AE7AC421ABF05EA1357AF4257
:1030300012E050EA41061CBF52EA4306BFE750EADD
:103040004107304661461CBF41EA0551F0BD52EAD6
:10305000430C08BFC143F0BD00204FF4001616EB2F
:10306000410F98BF16EB430F08BF16EB410F24BF6B
:10307000C14305E016EB430F0CBF61464CEA055116
:10308000F0BD000080B5134800F0E7F80FF24801EA
:10309000016041608160C1600161416181610FF245
:1030A0003C0242628162C162016341630FF23002FD
:1030B00082630FF23402C2630164416401BD10B542
:1030C000044800F0CAF80446206808B9FFF7DAFFA0
:1030D000204610BD00000020000000002E0000006F
:1030E00066616C7365000000747275650000000015
:1030F00091FBF2F303FB1211C0E9003170470000AD
:1031000080B5DFF80C0000F0A8F8806902BD00006F
:1031100038C0002030B438B90FF24400D0E900457F
:10312000C2E90045002001E00170012030BC704779
:1031300030B439B90FF23000D0E90045C3E9004599
:1031400000200BE012B96FF0010007E008B10A7827
:1031500002800978481E8041C043C00F30BC7047D0
:10316000000000000000000000000000000000005F
:103170007047000070B44FF0004591EA030C44BF63
:103180006B40FFF7D2BC841A71EB030603D2001B1D
:10319000B141121973414FF4001C1CEB410F34BFB5
:1031A0007CEB430443E00C0DA4EB1356352E50DCAE
:1031B00045EAC323DB0A45EAC121C912B6F120055D
:1031C0000DDD63FA05F6EB4086EA0305124218BFEF
:1031D00045F00105C01851F100010CD213E062FA6C
:1031E00006F5F2405540F3415A40B340F3405A408F
:1031F0008018594107D349085FEA30005FEA350576
:1032000028BF45F0010501F58011420875F1004223
:1032100050F1000041EB045170BC4FF4001C1CEB5A
:10322000410F38BF70470020090D090570471CEB9E
:10323000410F10D252EA43060BD0BCEB410F05D828
:103240000C0DAB43661E342EB5DD02E0AB43801897
:10325000594170BC704770BC70477047DFF8000C74
:10326000006810F4E060DFF8001B0843DFF8F01B93
:103270000860BFF34F8FFEE710B40022002303E085
:103280009BB21C5CA2185B1C9BB289B28B42F7D329
:103290001000C0B210BC7047DFF8D00A00880028C8
:1032A00029D0DFF8C00B0078012824D1DFF8BC0A50
:1032B0000088401EDFF8B41A0880DFF8B00A0088E2
:1032C000002818D1DFF8300B0078032808D3DFF886
:1032D0002C0B00210170DFF8200B0021017006E0AB
:1032E000DFF8140B0078401CDFF80C1B0870DFF8C7
:1032F000740B0021017070471FB586B000249DF843
:103300001B009DF81A1011F00F0150EA01209DF8E2
:10331000191050EA01309DF8181011F0030150EA1D
:1033200001509DF81C1011F07F0150EA815001906E
:1033300004208DF8080000208DF809009DF81D007C
:103340008DF80A009DF80A200DF11E010DF10B0009
:1033500000F026FE00A9DFF8100B00F06DFF042836
:1033600005D1641C42F21070A4B28442F2D10AB0BA
:1033700010BD00B585B0DFF8F40A0078002800F031
:10338000D980DFF8EC0A0F218170DFF8E40A01210F
:10339000C170DFF8DC0ADFF8DC1A09780171DFF8A8
:1033A000D80A008809282BD2DFF8C40A002101704E
:1033B000DFF8BC0A00214170DFF8B40ADFF8B81A60
:1033C00009884171DFF8A80A4279DFF8B01ADFF8FE
:1033D000B00A00F0E5FD00A8DFF8941A1022FFF70C
:1033E000B6F900A80FC8FFF787FFDFF88009DFF8FC
:1033F000941A09880180DFF8740A0021017099E0AD
:10340000DFF8840A0078002827D0DFF8640A012159
:103410000170DFF85C0A00214170DFF8540A0821CE
:103420004171DFF84C0A4279DFF8501ADFF8500A90
:1034300000F0B6FD00A8DFF8381A1022FFF787F970
:1034400000A80FC8FFF758FFDFF8400A08210180E5
:10345000DFF8340A002101706CE0DFF8300A0088E0
:103460000830DFF8141A098888422DDADFF8000ADC
:1034700002210170DFF8F8094078401CDFF8F019EC
:103480004870DFF8EC0908214171DFF8E40942795E
:10349000DFF8F8090088DFF8E4194118DFF8E009DF
:1034A00000F07EFD00A8DFF8C8191022FFF74FF9E1
:1034B00000A80FC8FFF720FFDFF8D0090088083008
:1034C000DFF8C819088035E0DFF8A409032101708E
:1034D000DFF89C094078401CDFF894194870DFF849
:1034E00098090088DFF8A4190988401ADFF88019C4
:1034F0004871DFF87C094279DFF890090088DFF82D
:103500007C194118DFF8780900F04AFD00A8DFF8BF
:1035100060191022FFF71BF900A80FC8FFF7ECFE97
:10352000DFF84808DFF85C1909880180DFF83C09FA
:103530000021017005B000BD0FB480B59DF81600E4
:10354000C0B2B0281CD1DFF8B4180978022917D10D
:10355000DFF8200902780FF69011DFF8340900F047
:10356000BBFFDFF830190880DFF828090188DFF891
:10357000200901F06DF9DFF884080321017048E0AB
:10358000C0B2B1281CD1DFF874180978032917D10B
:10359000DFF8E00802780FF66C11DFF8F40800F0AD
:1035A0009BFFDFF8F0180880DFF8E8080188DFF8F3
:1035B000E00801F04DF9DFF844080421017028E02B
:1035C000C0B2B22825D1DFF834080078042820D111
:1035D000DFF8A00800780090DFF8BC080388DFF867
:1035E000BC0802880FF64011DFF8A40800F074FF51
:1035F000DFF8A0180880DFF89C080188DFF8900841
:1036000001F026F9DFF894080088401CDFF88C18D8
:103610000880DFF8500800210170DFF85007002112
:103620000180DFF8D4070021017001BC5DF814FBB4
:1036300080B5DFF84808AA210170DFF84008AA2108
:103640004170DFF83808DFF82C1809788170DFF84E
:103650002C08B021C1700421DFF82008FFF70CFE10
:10366000DFF818180871DFF8100805210180DFF86D
:10367000FC0701210170DFF80C084FF47A7101801A
:10368000DFF8E00701210170DFF8E80702780FF6A4
:10369000B801DFF8FC0700F01FFFDFF8F81708801B
:1036A000DFF8F0070188DFF8E80701F0D1F801BD85
:1036B00080B5DFF8C807AA210170DFF8C007AA218A
:1036C0004170DFF8B807DFF8AC1709788170DFF8D0
:1036D000AC07B121C1700421DFF8A007FFF7CCFDD2
:1036E000DFF898170871DFF8900705210180DFF8EF
:1036F0007C0701210170DFF88C0741F288310180DD
:10370000DFF8600701210170DFF8680702780FF623
:103710005401DFF87C0700F0DFFEDFF8781708803F
:10372000DFF870070188DFF8680701F091F801BD44
:1037300010B582B0DFF86817DFF85C070088DFF8A3
:103740005C27128890420FD2DFF828070078401CCF
:10375000DFF820170870DFF8440701210180DFF847
:103760009C060221017085E0DFF830070088DFF851
:1037700028271288904202D24FF480720AE0DFF8C4
:1037800024070068DFF810271288521E4FF4807358
:103790005A43821ADFF8040700884FF4807303FB52
:1037A0000010B0F5807112F10904DFF8D006AA23E9
:1037B0000370DFF8C806AA234370DFF8C006DFF8FD
:1037C000B4361B788370DFF8B406B223C370DFF819
:1037D000AC06DFF8C4361B880371DFF8A006DFF8FB
:1037E000BC361B884371DFF894068271DFF88C06C3
:1037F00092B2130AC37192B2DFF8AC0600F0D0FBAC
:10380000611E89B2DFF87406FFF736FDA4B2DFF857
:103810006C16611801F8010CDFF85C060480DFF813
:10382000680601210170DFF8440601210170DFF80C
:1038300054064FF4FA610180DFF828060121017077
:10384000DFF8300600780090DFF84C060388DFF8D8
:103850004C0602880FF22C71DFF8340600F03CFEB3
:10386000DFF830160880DFF82C060188DFF8200624
:1038700000F0EEFF13BD80B5DFF88005007800286A
:1038800004D0DFF878050078012800D15EE0DFF889
:1038900014060068002804D1DFF8600500210170DB
:1038A00054E0DFF8D0050078DFF80016097BDFF878
:1038B000FC25527B5118884224DBDFF840050021AB
:1038C0000170DFF8EC0500F0F2FF4FF6FF7188425F
:1038D00017D001F09BF9342001F048FADFF8D40545
:1038E00001F0A8F9042804D1AA21DFF8C80501F0E5
:1038F00016FA01F096F94FF4FA6001F021F9FFF79A
:10390000ADFC23E0DFF8F4040078022806D1DFF8EC
:1039100054050078002801D1FFF78AFEDFF8DC04A7
:103920000078032806D1DFF83C050078002801D193
:10393000FFF7BEFEDFF8C4040078042806D1DFF8E4
:1039400024050078002801D1FFF7F2FE01BD80B503
:10395000DFF864050088052801D200202CE0DFF89C
:103960005C050078AA2804D1DFF850054078AA2821
:1039700001D0002020E0DFF844058078DFF8401512
:103980000978884201D0002016E0DFF82C05008875
:10399000411E89B2DFF82405FFF76EFCDFF8181529
:1039A0000988DFF81825891811F8011CC0B2814276
:1039B00001D0002000E0012002BD80B5FFF7C7FF65
:1039C000012862D1DFF8F404C078C0B2B02808D171
:1039D000DFF8F004B0210180DFF8EC040021018061
:1039E00053E0C0B2B12808D1DFF8D804B12101807A
:1039F000DFF8D4040021018047E0C0B2B22840D1F2
:103A0000DFF8B8040079DFF890140880DFF8AC0420
:103A10004079DFF888140880DFF8A0048079DFF8A7
:103A20009C14C97950EA0120DFF8A0140880DFF85F
:103A30009C04008840F20111884226D2DFF8580425
:103A40000088DFF85814098888421ED3DFF878040C
:103A50000088401CDFF84414098888420CD0DFF845
:103A600068040088DFF83414098888420DD1DFF833
:103A70005404B221018008E0DFF84804B22101803B
:103A800003E0DFF840040021018001BD0FB400B560
:103A900083B00598000A10F00F008DF80200059819
:103AA000800D10F07F008DF804000598000D10F0D7
:103AB00003008DF800000598000B8DF801009DF8BB
:103AC0000400DFF8FC130978884240F099809DF8E3
:103AD00002000F2840F094809DF8000000280FD1CC
:103AE0009DF81A200DF11B01DFF8D00300F058FA01
:103AF0009DF81A00DFF8C0130880FFF75EFF7FE033
:103B00009DF80000012816D19DF81A200DF11B0127
:103B1000DFF8A80300F044FADFF8B40301210170D4
:103B20009DF80100DFF8AC1308709DF81A00DFF86B
:103B3000A813088064E09DF8000002282DD1DFF86A
:103B40009003007801285BD19DF80100DFF8841311
:103B50000978491C884253D1DFF87C0300889DF81E
:103B60001A100818B0F5967F4ADC9DF81A200DF15E
:103B70001B01DFF864030088D04BC01800F010FA76
:103B8000D4480078401CD3490870D34800889DF879
:103B90001A100818D049088032E09DF80000032868
:103BA0002ED1CB48007801282AD19DF80100C949BF
:103BB0000978491C884223D1C74800889DF81A100B
:103BC0000818B0F5967F1BDC9DF81A200DF11B013B
:103BD000C1480088B94BC01800F0E2F9BE4800881F
:103BE0009DF81A100818B4490880FFF7E6FEB84897
:103BF00000210170B74800210170B7480021018001
:103C000007BC5DF814FB00B585B000208DF80000FE
:103C100000208DF801000F208DF80200A8480078E0
:103C20008DF8030001208DF8040005208DF80500B3
:103C300055208DF8060055208DF80700A048007823
:103C40008DF80800B0208DF8090004210DF1060060
:103C5000FFF712FB8DF80A0000A80FC8FFF74CFB16
:103C600005B000BD00B585B000208DF80000002033
:103C70008DF801000F208DF80200914800788DF832
:103C8000030001208DF8040005208DF80500552063
:103C90008DF8060055208DF80700894800788DF8CA
:103CA0000800B1208DF8090004210DF10600FFF78E
:103CB000E3FA8DF80A0000A80FC8FFF71DFB05B056
:103CC00000BD00B585B000208DF8000000208DF803
:103CD00001000F208DF80200794800788DF803006C
:103CE00001208DF8040006208DF8050055208DF880
:103CF000060055208DF80700714800788DF80800FF
:103D0000B2208DF80900654800888DF80A00052169
:103D10000DF10600FFF7B0FA8DF80B0000A80FC8F0
:103D2000FFF7EAFA05B000BD70B504245FF4BC30BB
:103D300001F005FB050000F069FF5E4800F07AFF26
:103D40000400002608E04FF40060594900FB06100B
:103D500000F070FF0400761CAE4202D2E4B2042CE4
:103D6000F1D000F05EFF70BD0400FA0540C20020F3
:103D700070B5554800884949098888423BD0524867
:103D8000464909880180554C444800884FF48071A9
:103D9000534A01FB0025002602E02D1D241D361D7F
:103DA0004A480088B6B286420CD200F02FFF216844
:103DB000280000F071FF00F034FF28682168884275
:103DC000EBD018E03548008833490988884212D181
:103DD00000F01CFF342000F0C9FF364800F02AFF35
:103DE000042803D1AA21334800F099FF00F019FFFD
:103DF0003C480121017070BD5AC2002061C2002000
:103E000080B504E0FFF7FFFE2E48002101802D4819
:103E10000088B028F6D02B480088B12807D1FFF7DA
:103E200083FFFFF71FFF274800210180EFE72548A8
:103E30000088B228EBD1FFF79BFFFFF742FF214834
:103E400000210180274800780128E0D12548002181
:103E500001704FF4FA6000F073FEFFF7FFF9D6E748
:103E60000CED00E059C20020006400405BC200205D
:103E70009CC1002058C2002042C20020A0BA0020ED
:103E8000A2C100203EC200205CC2002044C200202B
:103E900068BF00204EC2002038C200203AC2002075
:103EA00000800208D8C10020A8BA0020ACC10020C0
:103EB0000000010800F8000846C20020CCBB00202A
:103EC00062C200204AC200204CC200203CC2002036
:103ED0005DC200205EC2002048C20020D4BB00208A
:103EE00000FF00085FC200205265706C7920626F8D
:103EF0006F7420636F6D6D616E642066726F6D3AD2
:103F000025640A005265706C7920657261736520C2
:103F1000666C61736820636F6D6D616E642066729C
:103F20006F6D3A25640A00005265706C79207061EB
:103F3000636B202564206F662025642066726F6D98
:103F40003A25640A0000000053656E6420626F6FBA
:103F50007420636F6D6D616E6420746F3A25640A1E
:103F60000000000053656E64206572617365206611
:103F70006C61736820636F6D6D616E6420746F3A5D
:103F800025640A0053656E64207061636B202564AC
:103F9000206F6620256420746F3A25640A000000B3
:103FA00010B504002000FEF7C5FB200010BD000086
:103FB00080B5944988420AD101215FF0007001F078
:103FC00095FA00215FF0007001F090FA09E00121FC
:103FD0005FF0806001F08AFA00215FF0806001F0FC
:103FE00085FA01BD10B400220023046834F00204F5
:103FF0000460046854F00104046000E05B1C426843
:10400000D20703D44FF6FF729342F7D14268D2072A
:1040100001D400226AE08A79012A04D1026852F0B0
:104020008002026003E0026832F080020260CA7916
:10403000012A04D1026852F04002026003E00268E3
:1040400032F0400202600A7A012A04D1026852F07A
:104050002002026003E0026832F0200202604A7A25
:10406000012A04D1026852F01002026003E00268E3
:1040700032F0100202608A7A012A04D1026852F0FA
:104080000802026003E0026832F008020260CA7AA5
:10409000012A04D1026852F00402026003E00268BF
:1040A00032F0040202608A78CB781B0653EA8272EF
:1040B0000B7952EA03424B7952EA03520988491EAE
:1040C0001143C1610168490849000160002300E013
:1040D0005B1C4168C90703D54FF6FF718B42F7D1CE
:1040E0004068C00701D5002200E001221000C0B2E4
:1040F00010BC704710B400210122837A9A4011004D
:10410000414A126852F001023F4B1A603F4A12685E
:104110008A433E4B1A60027B002A15D13C4A126842
:104120008A433B4B1A60C288438853EA0242837A2F
:10413000384C44F83320827A364B13EBC202838822
:10414000048854EA03435360027B012A15D1304AA4
:1041500012680A432E4B1A600288438853EA0242CF
:10416000837A2C4C44F83320827A2A4B13EBC20218
:104170008388C48854EA03435360C27A002A05D175
:10418000254A12688A43244B1A6004E0224A1268C6
:104190000A43214B1A600289002A04D11F4A12687F
:1041A0008A431E4B1A600289012A04D11B4A1268F5
:1041B0000A431A4B1A60407B012804D11348006857
:1041C00008431249086010480068400840000E4942
:1041D000086010BC7047002181710021C17100216D
:1041E000017200214172002181720021C1720021FF
:1041F00081700021C17003210171022141710121EF
:104200000180704700640040006600401C6600406A
:104210000C660040406600400466004014660040A2
:10422000D2B2002A03D042691143416103E04269DE
:1042300032EA01014161704730B4002283685B01BA
:1042400001D500220AE08268120101D5012205E0B1
:104250008268D20001D5022200E00422D2B2042AF0
:1042600075D0D2B210EB0213D3F8803113F00103F2
:10427000D2B210EB0214C4F880310B7A002B0FD1AC
:10428000D2B210EB0213D3F880310C684D7A55EAA4
:1042900044542343D2B210EB0214C4F8803110E02E
:1042A000D2B210EB0213D3F880314C680D7A55EA84
:1042B000C4044D7A2C432343D2B210EB0214C4F849
:1042C00080318B7A13F00F038B72D2B210EB021392
:1042D000D3F884311B091B01D2B210EB0214C4F8CD
:1042E0008431D2B210EB0213D3F884318C7A234399
:1042F000D2B210EB0214C4F884318B7B4C7B2404C3
:1043000054EA03630C7B53EA0423CC7A2343D2B2EE
:1043100010EB0214C4F888318B7C4C7C240454EAE2
:1043200003630C7C53EA0423C97B1943D2B210EB1C
:104330000213C3F88C11D2B210EB0211D1F8801124
:1043400051F00101D2B210EB0210C0F88011100040
:10435000C0B230BC7047C9B2002902D12021C1606F
:1043600001E020210161704780B5C9B210EB011353
:10437000D3F8B03113F004031372137A002B07D172
:10438000C9B210EB0113D3F8B0315B0D136006E036
:10439000C9B210EB0113D3F8B031DB085360C9B2D6
:1043A00010EB0113D3F8B03113F002035372C9B20A
:1043B00010EB0113D3F8B43113F00F039372C9B2A9
:1043C00010EB0113D3F8B4311B0AD374C9B210EB4C
:1043D0000113D3F8B831D372C9B210EB0113D3F87B
:1043E000B8311B0A1373C9B210EB0113D3F8B831FB
:1043F0001B0C5373C9B210EB0113D3F8B8311B0E69
:104400009373C9B210EB0113D3F8BC31D373C9B2A3
:1044100010EB0113D3F8BC311B0A1374C9B210EBB3
:104420000113D3F8BC311B0C5374C9B210EB011348
:10443000D3F8BC311B0E9374C9B2FFF78CFF01BDDA
:10444000042926D0052919D006291AD007291CD0FD
:10445000082921D0202922D0402923D0B1F5807FFE
:1044600023D0B1F5007F25D0B1F5806F27D0B1F50D
:10447000803F29D0B1F5003F29D02BE00121816098
:1044800028E04FF48071816024E05FF48031816026
:1044900020E00821C1601DE01021C1601AE0082160
:1044A000016117E01021016114E0816949084900A8
:1044B00081610FE0816931F0020181610AE0816967
:1044C00031F00401816105E00821416002E0102122
:1044D0004160FFE7704700000CB41CB5044604A817
:1044E0000190009401AB0A4600A9074878441830AF
:1044F000FDF75AF8009900220A7000285CBF009866
:10450000001B16BC5DF80CFB6FE1FFFF10B504004B
:1045100001F030FAE4B2E021DFF86C2301FB042162
:10452000C1F8D400E4B2E020DFF85C1300FB041013
:10453000002180F8CE10E4B2E020D34900FB041043
:10454000D0F8D40000281FD0E4B2E020CE4900FB10
:104550000410012180F8DE10E4B2E020CA4900FB1B
:104560000410002180F8DF10E4B2E020C64900FB0F
:104570000410002180F8C810E4B2E020C24900FB1A
:1045800004100021A0F8CC1010BD10B582B00400BA
:104590002000C0B200F02FF9E4B2E020BA4900FBDD
:1045A000041090F8D800E4B2E021B74A01FB0421DE
:1045B00091F8D910090451EA0060E4B2E021B24A4E
:1045C00001FB042191F8DA1050EA0120E4B2E02165
:1045D000AD4A01FB042191F8DB10084301F0E5F935
:1045E000009040F6B832A949E4B2E020A64B00FBA7
:1045F0000430D0F8D40001F01FF9E4B2E020A24961
:1046000000FB0410B0F8DC2000A9E4B2E0209E4BCF
:1046100000FB0430D0F8D40001F04AF940B2002881
:104620001AD100229A49E4B2E020974B00FB0430F3
:10463000D0F8D40001F078F9E4B2E020924900FB10
:104640000410012180F8CE10E4B2E0208E4900FB76
:104650000410002180F8DF1013BDF8B5002330E00E
:10466000DBB2E025884E05FB0365B5F8CA50C0B241
:104670004519DBB2E026844F06FB0376C0B2075D26
:10468000AF55401C0500EDB21689ADB2B542E7D377
:10469000DBB2E0247C4D04FB0354B4F8CA40C0B242
:1046A0000419DBB2E025784E05FB0365A5F8CA4086
:1046B000DBB2E024744D04FB0354022584F8CE5091
:1046C0005B1CDBB2012B31D28C8ADBB2E0256E4E53
:1046D00005FB0365B5F8DC50AC42F1D1002400E0E5
:1046E000641CE4B2042C0FD24D68E4B2E600F5403D
:1046F000E4B2DBB2E026644F06FB0376A61996F817
:10470000D860EDB2AE42EBD0DBB2E0255E4E05FBE9
:10471000036595F8CE50012DD2D1E4B2042CCFD14F
:104720001489652CB4D254680020ABE7100001F066
:10473000ADFAF1BD38B504000322E4B2E0205249DD
:1047400000FB0410B0F8CC10002001F03EF9050089
:10475000002D1DD0E4B2E0204B4900FB0410B0F85E
:10476000CC20E4B2E020484900FB041010F16401C1
:10477000280001F0A2FB2900E4B2E020424A00FB3D
:104780000420D0F8D40000F0C2FF280001F07EFA27
:1047900031BD80B53C4890F8CE00022807D13D4994
:1047A000394801F060FC3848012180F8CE103648C5
:1047B00090F8DE00002803D10020FFF7A7FE19E0E3
:1047C000314890F8CE00002803D10020FFF7DDFE2D
:1047D00010E02D4890F8CE0001280BD12A4890F81F
:1047E000C800012806D10020FFF7A4FF26480021B9
:1047F00080F8C81001BDC0B2002828D1C0B2E021A5
:10480000214A01FB002140F6B832A1F8DC20C0B2F9
:10481000E0211D4A01FB0021C02281F8D820C0B24E
:10482000E021194A01FB0021A82281F8D920C0B259
:10483000E021154A01FB0021022281F8DA20C0B2F2
:10484000E021114A01FB0020642180F8DB10704751
:1048500010B50D4A92F8CE20012A13D1002207E0AC
:1048600092B2094BD31892B2145C83F86440521C84
:1048700092B289B28A42F3D30348A0F8CC10002048
:10488000FFF758FF10BD0000F8BC00204C73000873
:104890005B460008C2BD0020BE48006810F4E0601E
:1048A000BD490843BB490860BFF34F8FFEE70021B5
:1048B000002205E0090253421B185B781943521C81
:1048C000022AF7D3080080B2704783B0B34800686B
:1048D0000090B34800680190B248006802900098C8
:1048E0000199890811EB5000029910EBD100010EDB
:1048F000AD4A1170010CAC4A5170010AAA4A91707C
:10490000A949C870A84800210171A7480221417136
:1049100003B0704738B5002400254EE04FF4007115
:10492000A24801F061FC002801D054F001044FF4CA
:1049300080519F4801F058FC002801D054F0020437
:104940004FF400419A4801F04FFC002801D054F088
:1049500004044FF48061954801F046FC002801D022
:1049600054F008044FF40061904801F03DFC002829
:1049700001D054F010044FF480518C4801F034FC05
:10498000002801D054F0200404218A4801F02CFCB6
:10499000002801D054F040040821864801F024FC8E
:1049A000002801D054F0800483480078E4B2A0428B
:1049B00002D08148047000256D1CEDB2142DADD3DA
:1049C0007D480078C04310F07F007B49087031BDFE
:1049D00080B57A480088012811D1784800210180EB
:1049E0001021744801F00BFC002804D010217148FC
:1049F00001F013FC03E010216E4801F00BFC01BD37
:104A000080B56F4800686F490840B0F1005F0ED173
:104A10006D486E49096801606D486B49096801601D
:104A20006748006801F046FC69480068804701BD9E
:104A300080B500F06CFAFFF748FFFFF76BFF6548A1
:104A400065490988018063480088AA280DD05A4822
:104A50000078012803D058480078002802D100F0DF
:104A600008F804E0FFF7CCF901E0FFF7C9FF0020E8
:104A700002BD80B501E000F074FA584800680028D3
:104A8000F9D001F090FA01F019FC01F0FFFE12E0FC
:104A900053480068000A53490880534801210180A7
:104AA000524800210170FFF774FE01F00BFBFEF786
:104AB000E2FEFEF75EFC4E48006801F046FC4D4801
:104AC00000780128EFD14B48002101704A48C07A94
:104AD000002819D149480021017000F097F83420CE
:104AE00000F044F93C4800F0A5F8042803D1AA21BD
:104AF000394800F014F900F094F84FF4FA6000F02F
:104B00001FF8FFF7C9FECEE73B48C07A0128CAD19B
:104B10003A48022101703848007B39490870304812
:104B200000684FF48071B0FBF1F202FB1102002A21
:104B3000AED02B480068000A401C2A490880ACE728
:104B40002B49096840182F490860294800682D49F9
:104B500009688842F9D3704780B525480068401C31
:104B6000234908602848008800280ED0264800887D
:104B7000401E2549088024480088002805D1224885
:104B8000FA2101800D4801210180FFF721FFFEF786
:104B900083FB01BD0CED00E00400FA05E8F7FF1F00
:104BA000ECF7FF1FF0F7FF1FD0C1002000100140FD
:104BB000000801400014014062C2002054C20020DD
:104BC000000001080000FE2FF4C1002004000108CD
:104BD000F0C1002056C2002000F800081CC20020CE
:104BE000D8C1002038C200203AC2002059C200209B
:104BF000E8C1002065C20020ACC1002061C20020D5
:104C000058C20020ECC1002094000020DFF894017D
:104C1000DFF894110160DFF88C01DFF8901101607A
:104C20007047DFF88C01006850F08000DFF88011D9
:104C30000860704738B50400042540F6FF7000F0A6
:104C4000BDF80500EDB2042D23D1DFF86401006842
:104C500050F00200DFF858110860DFF858010460D6
:104C6000DFF84C01006850F04000DFF844110860A4
:104C700040F6FF7000F0A2F80500EDB2052D08D057
:104C8000DFF82C01006841F6FD710840DFF82011C3
:104C900008602800C0B232BD70B582B005000C00BB
:104CA0000426002000900F2000F088F80600F6B2DD
:104CB000042E31D1DFF8F800006850F00100DFF871
:104CC000F01008602C800F2000F078F80600F6B293
:104CD000042E15D1A81C0090200C009908800F20EC
:104CE00000F06CF80600F6B2052E15D0DFF8C00013
:104CF000006841F6FE710840DFF8B41008600BE070
:104D0000F6B2052E08D0DFF8A800006841F6FE7163
:104D10000840DFF89C1008603000C0B276BD70B566
:104D200004000D0004260F2000F048F80600F6B23B
:104D3000042E18D1DFF87800006850F00100DFF889
:104D40007010086025800F2000F038F80600F6B2D9
:104D5000052E08D0DFF85800006841F6FE710840C3
:104D6000DFF84C1008603000C0B270BD124980B24C
:104D700008607047042010490968C90701D501205F
:104D80000CE00D480068400701D5022006E00A4803
:104D90000068C00601D5032000E00420C0B27047BF
:104DA000000000000420024023016745AB89EFCDDD
:104DB00010200240142002400C20024038B50400AC
:104DC0000425FFF7D7FF050005E000F00FF8FFF717
:104DD000D1FF0500641EEDB2012D01D1002CF4D1EC
:104DE000002C00D105252800C0B232BD81B00020C2
:104DF0000090FF20009002E00098401E0090009874
:104E00000028F9D101B0704740B2002809D540B25E
:104E100010F00F00DFF898248018090100F8041C36
:104E200004E040B2DFF88C2409018154704780B55A
:104E3000B0F1807F01D3012013E00002000A401E80
:104E4000DFF8741408600F215FF0FF30FFF7DCFF1C
:104E5000DFF8680400210160DFF8640407210160C5
:104E6000002002BD00B587B0DFF85804FFF7A0F8B6
:104E700000A8FFF7B0F900208DF8060001208DF89A
:104E8000070000208DF8080000208DF809000020A0
:104E90008DF80A0001208DF80B0000208DF802002B
:104EA00000208DF803000C208DF8040001208DF8FF
:104EB00005001220ADF8000000A9DFF80804FFF794
:104EC00091F800208DF8160000208DF817000120C1
:104ED0008DF818000020ADF80C000020ADF80E0091
:104EE0000020ADF810000020ADF812000020ADF851
:104EF000140001208DF8190003A8FFF7FBF8012228
:104F00000221DFF8C003FFF78BF907B000BD00B541
:104F100085B001F04FFD01215FF0D05000F0C6FADE
:104F20000121DFF8A80300F0A1FA012144F27D007D
:104F300000F0ACFA00F0DAF900F062F8FFF792FF47
:104F400000A800F00DFA00984FF47A71B0FBF1F070
:104F5000FFF76DFF00215FF0FF30FFF755FF05B051
:104F600000BD00B5AFB0002001F09BF9062000F0B5
:104F7000CDFA01F0EBFD02F0D6F802F0DDF80128E1
:104F8000FBD000A801F02FFF012000900020079027
:104F90004FF400700A9000200B9000200E9000202B
:104FA00011900020139000201490002015900020F4
:104FB00020905FF0007021905FF40010239000209B
:104FC000259000202690042028905FF00070299002
:104FD0005FF480302A905FF480002B904FF40050F3
:104FE0002C904FF480402E90012100A801F0BAFDD2
:104FF000B74908600121B74802F0D6F82FB000BDCC
:1050000080B50420ADF8000003208DF802001820C0
:105010008DF8030000A9B04801F080F80620ADF833
:10502000000003208DF8020018208DF8030000A96D
:10503000AA4801F073F843F62010ADF800000320F1
:105040008DF8020018208DF8030000A9A44801F093
:1050500065F801215FF0201001F0EBF80B20ADF8AE
:10506000000003208DF8020004208DF8030000A941
:10507000994801F053F84FF48060ADF80000032028
:105080008DF8020004208DF8030000A9944801F077
:1050900045F80820ADF8000003208DF80200042038
:1050A0008DF8030000A98D4801F038F84FF4F8504E
:1050B000ADF8000003208DF8020004208DF80300F5
:1050C00000A9884801F02AF84FF48070ADF800007C
:1050D00003208DF8020018208DF8030000A97E48F7
:1050E00001F01CF81020ADF8000010208DF803002E
:1050F00003208DF8020000A97A4801F00FF84FF460
:105100000070ADF8000018208DF8030003208DF822
:10511000020000A9704801F001F84FF48060ADF87A
:10512000000004208DF8030000A96B4800F0F6FF92
:105130004FF40060ADF8000010208DF8030003204C
:105140008DF8020000A9644800F0E8FF4FF44040E9
:10515000ADF8000004208DF8030003208DF8020054
:1051600000A95F4800F0DAFF4FF4E070ADF80000EE
:1051700004208DF8030003208DF8020000A9574891
:1051800000F0CCFF4FF46040ADF8000004208DF833
:10519000030003208DF8020000A9524800F0BEFF72
:1051A0004FF47F40ADF8000004208DF80300032089
:1051B0008DF8020000A9444800F0B0FF01214A48E0
:1051C00001F037F84FF40670ADF8000010208DF8AC
:1051D000030003208DF8020000A9414800F09EFF63
:1051E000E020ADF8000010208DF8030003208DF8BA
:1051F000020000A93B4800F091FF0320ADF8000039
:1052000010208DF8030003208DF8020000A92E481D
:1052100000F084FF00221021314801F001F84FF422
:105220001040ADF8000004208DF8030003208DF835
:10523000020000A9284800F071FF4FF4F050ADF8CB
:10524000000004208DF8030003208DF8020000A95F
:10525000224800F063FF0C20ADF8000004208DF818
:10526000030003208DF8020000A91E4800F056FF3D
:105270000120ADF8000048208DF8030003208DF8D0
:10528000020000A9174800F049FF0220ADF8000015
:1052900018208DF8030003208DF8020000A91148A2
:1052A00000F03CFF01215FF4EB1000F0C2FF01BDF4
:1052B00018ED00E000E400E014E000E018E000E099
:1052C00010E000E0006400400018014003C001004D
:1052D0001CC20020400001000008014000100140F5
:1052E000000C0140001401400002300080B5002194
:1052F0005FF0006001F0EEFF4FF4A06001F0B2FF3C
:105300003D208DF8000002208DF8010000208DF86E
:10531000020001208DF8030000A801F0A8FF14206E
:105320008DF8000000208DF8010001208DF80200AA
:1053300001208DF8030000A801F099FF01BD01B420
:10534000002000994FF40062B1FBF2F303FB12134B
:10535000002B02D0C80A401C00E0C80A01B0704708
:10536000F0B500250021002700260022002300249C
:105370005FF0000CDFF89CE1DEF800E01EF00C0EA0
:105380007546002D04D0042D05D0082D06D041E02F
:105390006249016040E0624901603DE05D490968A1
:1053A00011F470115B4A126812F48037890C0D29D0
:1053B00001D0891C00E00621002F03D1594A514336
:1053C000016026E0544A126812F48032524B1B6886
:1053D00013F00F035B1C002A06D1514AB2FBF3F213
:1053E00001FB02F1016014E04B4A1268C2F30312A0
:1053F000541C494A1268C2F3032212F1020C484AB3
:10540000B2FBF4F20CFB02F2B2FBF3F201FB02F18D
:10541000016001E0414901603E49096811F0F00571
:105420002D0941496E5C0168F140416039490968C4
:1054300011F4E0652D0A3C496E5C4168F1408160E1
:105440003449096811F46055ED0A37496E5C4168CA
:10545000F140C1602F49096811F44045AD0B334953
:105460006E5CC168B1FBF6F10161F0BDC9B2002903
:1054700005D02F49096808432D49086005E02C49EB
:10548000096831EA00002A4908607047C9B200295A
:1054900005D02849096808432649086005E02549E0
:1054A000096831EA0000234908607047C9B2002941
:1054B00005D02149096808431F49086005E01E49D5
:1054C000096831EA00001C4908607047C9B2002928
:1054D00005D01A49096808431849086005E01749CA
:1054E000096831EA0000154908607047C9B200290F
:1054F00005D01349096808431149086005E01049BF
:10550000096831EA00000E49086070470D490870CB
:1055100070470000041002402C10024000127A0074
:1055200040787D0100093D00740000208C000020BF
:1055300014100240181002401C10024028100240B3
:1055400010100240071002402DE9F84304000E003D
:105550006568288800F024FA2189C0F3032080B20E
:105560008000083081420EDB288800F019FAC0F371
:10557000032080B2800000B2414209B2200000F056
:105580003BFB002803D0200000F080FBBDE0D4F8F6
:105590000490310015F1100001F0B0FE0700B9F8D9
:1055A000000000F0FDF98046B9F8020000F0F8F9BB
:1055B000002200230021DFF8B4C3DCF8009002E0F1
:1055C0004A46D9F80C90B9F1000F45D00023B9F83C
:1055D00012C080B284451CD1FFB2002F07D1B9F1AF
:1055E000000F0DD0D9F800C0BCF1000F08D0D9F8D9
:1055F00000C0D5F810E0F44502D0FFB2002F08D06B
:105600000123002905D199F810C05FEA4C7C00D431
:105610004946DBB2002BD3D0B9F814301FFA88F812
:105620004345CDD119F10403002B09D0D9F804303A
:10563000002B05D0D9F80430D5F80CC06345BFD194
:10564000002A09D0D9F80C00D060C8480068C9F811
:105650000C00C648C0F80090B9F1000F00D189468F
:10566000B9F1000F03D17068296988424AD17FF0EF
:105670000701200000F0C0FA002803D0200000F04D
:1056800005FB42E0B9F1000F15D0D9F81800002849
:105690000DD01FFA88F8CDF8008015F10C03220018
:1056A0004946D9F81C00D9F81840A0472DE0200041
:1056B00000F0ECFA29E0FFB2002F1FD15FF070403C
:1056C00000F07FF9296910EA01065FF0604000F000
:1056D00078F9864212D0288800F062F9C0F30320DE
:1056E00080B2800010F1080109B2200000F084FAB5
:1056F0006068A8420321200001F0E1FE200000F0D4
:10570000C5FA02E0200000F0C1FABDE8F18380B5DF
:10571000838A021D00F001F802BDF8B504000D00F7
:1057200016001F00300001F00FFF002802D17FF0AB
:10573000030007E000903B009BB2320029002000EC
:1057400000F001F8F2BD2DE9F04784B004000D002F
:10575000160099460C9F608A00280DD1628A2100AC
:10576000200000F069F882464FFA8AFABAF1000F79
:1057700002D0504640B25CE00821280000F03CFA1C
:10578000002810D000220821012000F01EF98046D8
:10579000B8F1000F02D15FF0FF304AE02900404627
:1057A00000F0D7FA00E0A846B8F80A000828D8F8B0
:1057B00004A0608A00F0EEF8AAF80000484680B223
:1057C00000F0E8F8AAF802000020AAF80600002C71
:1057D00002D02068002802D117F104090EE02068E9
:1057E0007968884209D0A84504D0404600F04EFAB6
:1057F0005FF000087FF008001BE0A146B8F8080041
:1058000000F0C8F8AAF80400029711200190A07ACD
:105810000090E37A32004946404601F083FF824619
:10582000A84504D0404600F031FA5FF00008504629
:1058300040B204B0BDE8F08710B400244B4B1B68A5
:1058400005E0984202D1E4B2002C0124DB68002B71
:10585000F7D1002901D1002100E00968016092B26E
:10586000002A19D14FF4805240490B6802E0521CC3
:105870003E490B68002B0AD047F6FF7192B28A426C
:1058800005D0598A92B29142F1D0DB68F2E7002B41
:1058900002D07FF00A0009E04282E4B2002C04D179
:1058A00032490968C16031490860002010BC704766
:1058B00070B504000D001600608A002809D1628AC4
:1058C00021002000FFF7B8FF40B2002801D040B20D
:1058D0001AE0002D01D1002000E028686060A68257
:1058E000207C50F0040020742048006800E0C0686C
:1058F000002803D08442FAD1002005E01B4800684C
:10590000E0601A480460002070BD1949002901D1E7
:10591000002101E016490968416000218182017C73
:1059200011F0FB01017470478161C261704780B55D
:105930000E490968814205D10C490968C9680B4ABA
:1059400011600DE00949096808E0CA68002A04D01E
:10595000CA68824201D1C268CA60C9680029F4D10C
:105960000100012001F0E3FF01BD000030C2002072
:105970004C73000810B5012001F0C1FF0400002C99
:1059800006D020220021200001F0F4FFFF20E07269
:10599000200010BD80B2010A51EA002080B2704799
:1059A00080B580B2FFF7F6FF02BD10F47F41090217
:1059B00051EA0061020A12F47F42114351EA106079
:1059C000704780B5FFF7F1FF02BDF8B50E00140077
:1059D0000027C0B2002805D0022805D003D3032831
:1059E00017D017E0143714370E37E4B2002C00F04C
:1059F0008A80022C00F0AD80C0F0AB80032C40F018
:105A0000B880052001F07BFF0500002D04D10020A7
:105A100078E0EAE7002075E02C7300202860BFB230
:105A200078191030C01C8008800068606868042104
:105A3000B0FBF1F202FB1102002A2E81B6B240F255
:105A4000DC50BFB2F91C31F00301401A864201DA82
:105A5000300006E040F2DC50F91C4FF6FC721140B9
:105A6000401A688105F2EC5069896A688918884291
:105A700040F2DC50BFB2F91C31F00301401A01289A
:105A80000120E8812F00B6B26889361A17E040F28B
:105A9000DC51418110F11001416041680422B1FBE9
:105AA000F2F303FB1213002B05F2EC516A896B68C9
:105AB000D21891420121C1814189761A0700012E35
:105AC0001BDB052001F01BFF002804D1280000F09B
:105AD000DDF8002016E0047300214173002101600D
